:100000000C94EC020C9433030C9433030C943303E0
:100010000C9433030C9433030C9433030C94330388
:100020000C9433030C9433030C945E280C94302905
:100030000C94161F0C9433030C9433030C94330369
:100040000C9433030C9433030C9433030C94330358
:100050000C9433030C947E1F0C9433030C943303E1
:100060000C9433030C9433030C9433030C94330338
:100070000C9433030C9433030C9433030C94330328
:100080000C9433030C9433030C9433030C94330318
:100090000C9433030C9433030C9433030C94330308
:1000A0000C9433030C9433030C943303330D360D4B
:1000B0003E0D430D480D4D0D520D570D5C0D610D5C
:1000C000660D6B0D6D0D700D730D760D790D7C0D3C
:1000D0007E0D830D2A142A145C145C14A914C71411
:1000E0001F161F1609159E15AF15AF150F161F16F3
:1000F0001F161816A516A516B716B716AE16B716FC
:10010000B716B716A516A516B316B716B716B316B3
:100110009D29C429BC2AC429BC2A102A332ABC2AF6
:100120008A2A992A165C1E001F0020002100220046
:10013000230024002500260027002D002E000000AB
:100140002A002B00000014001A00080015001700F8
:100150001C0018000C00120013002F0030003100AA
:100160003900000004001600070009000A000B0017
:100170000D000E000F003300340028000000E100E5
:1001800000001D001B0006001900050011001000F2
:100190003600370038000000E5000000E000E30012
:1001A0000000E200000000002C0000000000000041
:1001B000E600E70000000151E40035003A003B0092
:1001C0003C003D003E003F00400041004200430033
:1001D0004400450000004C0001000000C25CC35C0C
:1001E000C55CC65CC75CC85CC95CCA5C01004600F3
:1001F00047004800005C0100000001000100010010
:100200000100010001000100010049004A004B000B
:10021000010000000100000001000100BD5CBF5CA6
:10022000BE5CC05C01004C004D004E0000000100AF
:1002300000000100010000000100000000000100BA
:1002400000000000000001000100000001000100AA
:1002500000047F3F1F643214643214783C1E1E1465
:100260000A052223252628292A2C2D2F3032333522
:1002700036383A3B3D3E4042434547494A4C4E5052
:1002800051535557595A5C5E6062646668696B6D7C
:100290006F71737577797B7D7F81838587898A8C80
:1002A0008E90929496989A9C9E9FA1A3A5A7A8AA87
:1002B000ACAEAFB1B3B4B6B8B9BBBCBEBFC1C2C3BC
:1002C000C5C6C7C9CACBCCCDCED0D1D2D2D3D4D556
:1002D000D6D7D7D8D9D9DADADBDBDBDCDCDCDCDC7F
:1002E000DDDDDDDDDCDCDCDCDCDBDBDBDADAD9D957
:1002F000D8D7D7D6D5D4D3D2D2D1D0CECDCCCBCAE5
:10030000C9C7C6C5C3C2C1BFBEBCBBB9B8B6B4B30A
:10031000B1AFAEACAAA8A7A5A3A19F9E9C9A9896A0
:100320009492908E8C8A89878583817F7D7B797773
:100330007573716F6D6B6968666462605E5C5A5953
:1003400057555351504E4C4A4947454342403E3D14
:100350003B3A3836353332302F2D2C2A29282625A2
:100360002322FFAA7F554000010101010101010183
:100370000102020202020202020203030303030358
:100380000303040404040404040505050505060626
:1003900006060607070707070808080809090909E4
:1003A0000A0A0A0B0B0B0C0C0C0D0D0D0E0E0E0F8A
:1003B0000F0F10101111111212131314141515161A
:1003C000161717181819191A1A1B1B1C1D1D1E1E8B
:1003D0001F202021222223242425262627282929DC
:1003E0002A2B2C2D2D2E2F30313232333435363707
:1003F00038393A3B3C3D3E3F404142434445464705
:1004000048494A4C4D4E4F50515354555658595ADD
:100410005B5D5E5F616264656668696B6C6D6F7081
:1004200072737577787A7B7D7E8082838587888AF0
:100430008C8E8F91939596989A9C9EA0A2A3A5A727
:10044000A9ABADAFB1B3B5B7BABCBEC0C2C4C6C923
:10045000CBCDCFD1D4D6D8DBDDDFE2E4E7E9EBEEDC
:10046000F0F3F5F8FAFDFF0403300000000A03443E
:10047000005A0036003000000010034B00420044D8
:1004800000460061006E00730000000403090409C7
:10049000023B00020100A0FA09040000010301016F
:1004A0000009211101000122400007058103080015
:1004B0000A090401000103000000092111010001E3
:1004C00022BC000705820320000A1201100100006F
:1004D00000085A44602201000102030105010902DB
:1004E000A10185020901A1000509190129051500CD
:1004F00025019505750181029501750381010501AD
:10050000093009311581257F950275088106093862
:100510001581257F950175088106050C0A3802159D
:1005200081257F950175088106C0C005010980A15C
:1005300001850319012AB700150126B70095017539
:10054000108100C0050C0901A101850419012AA030
:1005500002150126A002950175108100C005010950
:1005600006A1018505050719E029E7150025019574
:1005700008750181020507190029EF15002501956D
:10058000F07501810205081901290595057501918C
:1005900002950175039101C005010906A101050736
:1005A00019E029E7150025019508750181029501DB
:1005B000750881010507190029FF150026FF009520
:1005C0000675088100050819012905950575019131
:1005D00002950175039101C011241FBECFEFDAE02F
:1005E000DEBFCDBF04B603FE27C0809112039091F9
:1005F0001303A0911403B09115038730904BA740CB
:10060000B04BD1F410921203109213031092140302
:100610001092150314BE84B7877F84BF0FB6F89479
:10062000A8958091600088618093600010926000BE
:100630000FBEE0E0F8E3099511E0A0E0B1E0E2E8E8
:10064000F7E502C005900D92A03CB107D9F723E071
:10065000A0ECB1E001C01D92A231B207E1F70E9407
:100660008D250C94BF2B0C9400000C941306229A39
:100670002A9A08950E9415060C94370381FF02C040
:100680002A9801C02A9A0C94900381E0089581E091
:1006900008950C9447031F93CF93DF9300D000D0AD
:1006A0001F92CDB7DEB749835A836B832091E60151
:1006B00089819A81211112C0662349F00E94F51B9D
:1006C000182F682F89819A810E949E1B03C00E9467
:1006D000C91B182F69817A81812F04C00E94F51BE4
:1006E00069817A810F900F900F900F900F90DF919A
:1006F000CF911F910C94FA03FC01408151816281DA
:10070000738184810C944B030E94271D811102C0C8
:100710000E94DA1D0E94FE0E0C943A030C943503DD
:10072000089581E008950C949103CF93C82F0E94FF
:100730003E038C2F0E949303CF91089508950E9449
:1007400093160E949E032FEF84E39CE0215080408B
:100750009040E1F700C000000C94A41F0F931F937A
:10076000CF93DF93EC010E947C038C01BE010E94B9
:1007700049038823A9F1BE01C8010E94670E88239E
:1007800079F1BE01C8010E94B70F882349F1BE016B
:10079000C8010E94F80F882319F1BE01C8010E9408
:1007A00023118823E9F0BE01C8010E941C0D882393
:1007B000B9F08A81882369F001158CE5180731F0BA
:1007C0000E3D1C4531F40E94DA1D0AC00E949F03B1
:1007D00007C0CE01DF91CF911F910F910C9445037B
:1007E00080E0DF91CF911F910F91089580E090E01C
:1007F000089508952BE4829FC0011124FC012FE08D
:10080000729FE00DF11D1124E60FF11DEE0FFF1F89
:10081000EC5DFE4F859194910895880F991FFC011E
:10082000E05BFD4F859194910895CF93DF930E94F3
:10083000FA030E942D05EC018115904508F041C096
:10084000C11580E4D80708F0D1C0C83ED10510F525
:10085000C03ED10508F0FDC0C83AD10578F4C53ACC
:10086000D10508F0A2C0C130D10509F4F2C008F4E6
:10087000EEC0C430D10508F0ECC0E9C0CF3BD105D3
:1008800008F49BC0C03CD10508F4E1C0CE01805CF7
:1008900091099EC0C11590E2D90758F4C11521E015
:1008A000D20708F0D6C0C03FD10508F4D0C0D0654B
:1008B000D0C0C11580E3D80708F08EC0CE019F706C
:1008C00087C0C11595E5D90708F043C0C11524E5D7
:1008D000D20708F0A2C0C11582E5D80708F5C115F6
:1008E00091E5D90708F085C0CE0174E0969587950B
:1008F0007A95E1F783709C2F937021E030E002C07D
:10090000220F331F9A95E2F73C68382BCF70C695BB
:10091000C69580E2C89FE0011124C22BD32B99C059
:100920009E01237033278C2F86958695C115D3455C
:1009300008F064C0C1E0D0E002C0CC0FDD1F2A95F2
:10094000E2F720E2829FC0011124C82BD92BDC687A
:1009500080C0C11529E5D207A0F4C11588E5D807E4
:1009600008F060C0C11596E5D90708F070C08C2F5B
:100970000E94C1058F71C82FD0E0DC2FCC27D06238
:1009800068C0C1152AE5D20708F451C0CE019056BF
:100990008115904208F05BC08D2F8F710E94C105B8
:1009A000DD27D0628F71D82B54C0C55AD0E0CD5A04
:1009B000DE4FC881D0E0D0644CC0C85AD0E0CC0F24
:1009C000DD1FCB5DDE4F0990D881C02DD46441C0BE
:1009D0000E940D04EC013DC0CE019927D3FF03C056
:1009E000EC01D86C36C0EC01D06C33C0DF70D06A3B
:1009F00030C0DC2FCC27C16FD06A2BC0C1E0D0E063
:100A000002C0CC0FDD1F2A95E2F720E2829FC001D1
:100A10001124C82BD92BDA681CC0DC2FCC27C46F5B
:100A2000D06A17C0DC2FCC27C06FD06A12C08C2FC1
:100A30008F700E94C10594E0D695C7959A95E1F70D
:100A4000CF70D0E0DC2FCC27D069C82B02C0C0E02B
:100A5000D0E0CE01DF91CF9108958238910569F100
:100A6000B0F48133910509F46DC048F489329105E1
:100A700009F463C08A32910509F469C00895853389
:100A8000910509F455C089339105B9F00895833E65
:100A9000910569F138F4803E9105B1F0823E9105EF
:100AA00009F10895863E9105A9F1873E9105B9F1B6
:100AB000843E910509F064C023C02091030320FD0A
:100AC0004FC021FD4DC008958091030380FD44C0B7
:100AD0008091040380FF44C08091030384FD42C0E1
:100AE00083EE4DC08091030382FF38C0F5CF809123
:100AF000030382FD33C08091040380FD31C0ECCF3D
:100B00008091040381FF32C08091030384FD2AC0D9
:100B100087EE35C08091030383FF26C0F5CF809117
:100B2000030383FD21C08091040381FD1FC0ECCF2E
:100B30008091030385FD1CC01DC08091030385FDCA
:100B400019C016C08091030386FD16C017C080919E
:100B5000030386FD13C010C089E311C082EE0FC0ED
:100B600080EE0DC080E00BC086EE09C084EE07C0A9
:100B700089E205C085E303C08AE201C081E390E019
:100B800008959091030392FF0DC0282F28712830FB
:100B900019F4877F846006C0282F2471243011F453
:100BA0008B7F886093FF0DC0282F2871283119F49E
:100BB000877E846106C0282F2471243111F48B7E36
:100BC00088612091040320FF0DC0382F3871383020
:100BD00019F4877F816006C0382F3171313011F4EC
:100BE0008E7F886021FF0DC0282F2871283119F4CD
:100BF000877E816106C0282F2171213111F48E7EFC
:100C0000886194FD877E0895E82FF0E0EE0FFF1FC6
:100C1000E354FD4F808191810895089580EA8A957B
:100C2000F1F7089508950C9412060C941206CF93D0
:100C3000DF93A5E6B1E04AE651E061E070E08D9116
:100C4000E82FE295EF70F0E021A18F70EB0102C078
:100C5000CC0FDD1F8A95E2F7CE019C2F9095922351
:100C600091A392A1892B82A34A175B0741F7A6E5BE
:100C7000B1E045E651E061E070E08D91E82FE2954A
:100C8000EF70F0E021A18F70EB0102C0CC0FDD1FEF
:100C90008A95E2F7CE019C2F9095922391A392A181
:100CA000892B82A34A175B0741F7E3EBF2E0ADEB38
:100CB000B2E08DEB92E0119211921D921D928E176F
:100CC0009F07C9F785E00E940607DF91CF910C943A
:100CD00084032F923F924F925F926F927F928F92F6
:100CE0009F92AF92BF92CF92DF92EF92FF920F93BB
:100CF0001F93CF93DF9385E6C82E81E0D82E03EBB8
:100D000012E09DEB492E92E0592E312C88248394D9
:100D1000912C5801D8016D907C9011971D921C92D6
:100D2000F60181916F01C82FC295CF70D0E099A1D3
:100D30008F70740101C0EE0C8A95EAF7892F8E2915
:100D400089A38AA12E2C209482218AA30E940E06B8
:100D5000E6E5F1E020E030E06191A62FA295AF70CA
:100D6000B0E090968C91D8014D915C9190E06F70BD
:100D700002C0959587956A95E2F780FD08C0C40189
:100D8000022E02C0880F991F0A94E2F702C080E089
:100D900090E0482B592BD8014D935C932F5F3F4F28
:100DA0002F303105C9F689A1282229A28AA1E82A73
:100DB000EAA20E5F1F4F81E0F501208131812615E7
:100DC000370509F480E0382A4016510609F0A1CF12
:100DD000232D45E06DEB72E083EB92E00E94070764
:100DE0000E948E03832DDF91CF911F910F91FF9071
:100DF000EF90DF90CF90BF90AF909F908F907F90BB
:100E00006F905F904F903F902F9008950895FF92BC
:100E10000F931F93CF93DF93F82E092F162FD72F01
:100E2000C42F222349F081E08093C2010E94481F11
:100E30009093C1018093C0018091C2018823D9F0B1
:100E40008091C0019091C1010E94541F069798F0B3
:100E5000EF2DF02FA12FBD2F80E090E04C2F50E020
:100E60008417950734F4219131912D933D93019688
:100E7000F7CF1092C201DF91CF911F910F91FF9098
:100E80000895EF92FF920F931F93CF93DF93F62E67
:100E9000472FE82FF0E0711106C0E959FC4F64912B
:100EA000762F862F72C0272F30E0E959FC4FE4914E
:100EB0000E2F10E056E0659FC0011124CFEFD0E067
:100EC000BE010E94002B5BEA5603C001579F900DA4
:100ED00011248F0D911D8F0D911D982F990F890F42
:100EE0007E01E21AF30AE09ED001E19EB00DF09E71
:100EF000B00D1124489FA0011124452F55277E01D4
:100F0000E41AF50AE09EA001E19E500DF09E500DFE
:100F100011247E01E81AF108E29EC001E39E900DC3
:100F2000F29E900D1124892F9927C81BD90BC09FC1
:100F3000C001C19F900DD09F900D112462307105AA
:100F400091F048F461157105E1F061307105A9F483
:100F50008B2F752F19C06430710561F038F0663041
:100F6000710579F00AC0892F7B2F0EC08E2F7B2F41
:100F7000E52F0AC08E2F792F02C0852F7E2FEB2FF1
:100F800003C08B2F7E2FE92F6E2FDF91CF911F9102
:100F90000F91FF90EF9008950895CF93DF93762FF0
:100FA000E901682F842F0E944107798368838A832F
:100FB000DF91CF9108958091C702282F269530E0C8
:100FC0002115310519F48170826005C02532310583
:100FD00024F0817088648093C702089588E090E0CF
:100FE0000C947F2BCF92DF92EF92FF926B017C01EA
:100FF0000E94DB07B701A60188E090E0FF90EF9028
:10100000DF90CF900C949D2BE7ECF2E083E080839F
:1010100011828FEF82838383148260817181828148
:1010200093810C94F2078091C70280FF02C08695DD
:10103000089580E008958091CB02833018F48F5F8B
:101040008093CB026091C7027091C8028091C9025F
:101050009091CA020C94F2078091CB02882319F078
:1010600081508093CB026091C7027091C802809139
:10107000C9029091CA020C94F2076091040170E0D9
:101080008091C70280FF0AC08091C70123E0829F40
:10109000C001112484539D4F0C94400F8091C601D0
:1010A00090910301891780F7E82FF0E09F01220F4C
:1010B000331FE20FF31FE453FD4F1182108212829F
:1010C0008F5FF0CF9091C70290FF16C09091C6013C
:1010D00020910301921770F4E92FF0E0DF01AA0FCD
:1010E000BB1FEA0FFB1FE453FD4F818360834283E4
:1010F0009F5FF0CF0C943D080895CF93DF9300D00D
:101100001F92CDB7DEB79091C70290FF0AC09E0133
:101110002F5F3F4F0E94CD074B8169818A810E94DA
:1011200062080F900F900F90DF91CF910895CF93A9
:10113000DF93EC01EC81F0E0EE59FD4F4491E7ECD8
:10114000F2E0628181810E947D088C818F5F8C83B7
:10115000DF91CF910895CF93DF93EC01E7ECF2E0BC
:10116000438162818C810E947D088C818F5F8C839A
:10117000DF91CF9108950F931F93CF93DF9300D00A
:101180001F92CDB7DEB78C018091C30181110AC0D7
:101190009E012F5F3F4F4FEF6FEF0E94CD078A8177
:1011A0008093C301F8018481813051F028F08230AE
:1011B00061F44091C3010AC08091C30140E007C0BF
:1011C0006091C30140E080E003C040E080E060E067
:1011D0000E946208F801848190E0019663E070E06B
:1011E0000E94142B84830F900F900F90DF91CF916A
:1011F0001F910F910895AF92BF92CF92DF92EF921D
:10120000FF920F931F93CF93DF9300D01F92CDB720
:10121000DEB7182FF62E042FE22E9091C70290FF12
:101220006DC0E92FE695AE2FB0E0A659BE4F8C9168
:101230008093CF019E7F923061F49E012F5F3F4FDC
:10124000812F0E94CD074B8169818A810E946208AB
:1012500043C0823019F40091CA023EC0863019F4AE
:101260001091C80239C08930D9F38931A9F5E95103
:101270008E2F8170D82EE695F0E0EE59FC4FA590A8
:10128000B490C12CBB2460910201C61618F52C2D18
:1012900030E0A29EC001A39E900DB29E900D11243D
:1012A00070E00E94002B812FD11002C0860F01C078
:1012B000861B9091C601290F311DA901440F551FAE
:1012C000240F351F24533D4F402F6F2D0E94CD0713
:1012D000C394D9CF0E943D081093C802F092C9026E
:1012E0000093CA02EE2051F06091C7027091C802CB
:1012F0008091C9029091CA020E94F2070F900F904C
:101300000F90DF91CF911F910F91FF90EF90DF90A1
:10131000CF90BF90AF900895E7ECF2E09181282F35
:101320004381628188E0890F0C94FB0881E00C9472
:101330008C09E7ECF2E09181282F4381628188EFEC
:10134000890F0C94FB0881E00C949909E7ECF2E01A
:10135000628128E0620F08F46FEF282F43818181BA
:101360000C94FB0881E00C94A609E7ECF2E06281A2
:1013700028E0621B08F460E0282F438181810C94EF
:10138000FB0881E00C94B509E7ECF2E0438128E02A
:10139000420F08F44FEF282F628181810C94FB08E3
:1013A00081E00C94C409E7ECF2E0438128E0421BA1
:1013B00008F440E0282F628181810C94FB0881E0D1
:1013C0000C94D30920E00C94FB08FF920F931F9319
:1013D000CF93DF93EC01F12C0FEF10E0609102014D
:1013E000F616F0F48091C6012F2D30E0280F311D44
:1013F000C901880F991F280F391F24533D4F70E0F2
:10140000C8010E94142B962F8C814091CA026091D2
:10141000C902F99E800D11240E94CD07F394DECFFE
:101420000E943D089A818C8190FF02C08F5F01C0AD
:1014300081508C83DF91CF911F910F91FF90089580
:10144000BF92CF92DF92EF92FF920F931F93CF93B1
:10145000DF93FC01828180FF02C00FEF01C001E039
:1014600010E080910201181708F040C08091C60179
:10147000C12ED12CE601C80FD11DCE01880F991FB6
:10148000C80FD91FC453DD4F198218821A8234E065
:10149000E32EF12CB12C8091C5018B0D813114F01C
:1014A0008F7005C087FF03C090910201890F082E3D
:1014B000000C990BC816D90691F48091CA028E9D32
:1014C000A0018F9D500D1124559547955595479531
:1014D0009E016091C9028091C8020E94CD07B00EA2
:1014E000F1E0EF1AF108B9F61F5FBBCF0E943D088B
:1014F0008091C501013031F4811102C08091020157
:10150000815007C090E001966091020170E00E9456
:10151000142B8093C501DF91CF911F910F91FF9004
:10152000EF90DF90CF90BF900895CF938091C60148
:1015300090910301891770F4E82FF0E09F01220FCA
:10154000331FE20FF31FE453FD4F1182108212820A
:101550008F5FF0CFC0E060910201C617C0F5EC2F9D
:10156000F0E070E0CF010E94142B2091C601820FA1
:101570002091C401022E000C330B90E0E217F30718
:10158000CCF020910101022E000C330B2E173F07E7
:101590008CF09C01220F331F820F931F9C01245358
:1015A0003D4F4091CA026091C9028091C8020E94D9
:1015B000CD070BC0FC01EE0FFF1F8E0F9F1FFC011C
:1015C000E453FD4F118210821282CF5FC4CF0E947C
:1015D0003D08209100018091C401820F8093C401D5
:1015E00090910101920F9093010119165CF4082E5D
:1015F000000C990B4091020150E0415051098417B1
:1016000095071CF0219520930001CF9108950F9329
:101610001F93CF93DF938C01FC0184819581019608
:101620008170992795838483C0E0D5E5809102017C
:10163000C81700F58091C6012C2F30E0280F311D0E
:10164000C901880F991F280F391F24533D4F4C2F74
:101650004695F80184819581840F911D8170409198
:10166000CA026091C9028D9F802D11240E94CD076E
:10167000CF5FDCCFDF91CF911F910F910C943D088C
:101680000F931F93CF93DF93EC0100E010E0809164
:101690000201282F30E00217130724F59091C601AC
:1016A0009801290F311DA901440F551F240F351F23
:1016B00024533D4F869590E04C81081719071CF480
:1016C000442331F002C0411103C04091CA0201C05D
:1016D00040E06091C9028091C8020E94CD070F5F6F
:1016E0001F4FD5CF0E943D088C8190E001968170FC
:1016F00099278C83DF91CF911F910F910895E7EC8B
:10170000F2E080818E7F808360817181828193810C
:101710000E94F2071092D0012FEF80E792E0215053
:1017200080409040E1F700C000000C943D08E7ECD9
:10173000F2E080818E7F80831092D0012FEF80E7CE
:1017400092E0215080409040E1F700C000000C94EE
:101750003D086091C702669570E04BE050E085E07F
:1017600091E00E946A2B892B19F481E08093D001CB
:101770000E94481F9093C9018093C80108959091D9
:10178000C70290FF35C09170811102C0926006C0FF
:10179000853210F0986402C0880F982B9093C7028E
:1017A000662351F06091C7027091C8028091C9020E
:1017B0009091CA020E94F2076091C702669570E09C
:1017C0004BE050E085E091E00E946A2B892B19F0F4
:1017D0001092D00102C00E94A90B81E08093CB013E
:1017E0004091CA026091C9028091C8020C94E2093A
:1017F0000895682F9091C702969581E0890F8532F0
:1018000008F081E00C94BF0B81E00C94F90B682F79
:101810009091C70296958FEF890F09F484E20C949A
:10182000BF0B81E00C94070C61E00C94BF0BE7EC5C
:10183000F2E080818160808386950C94140C809105
:10184000C70280FD0C947F0B0C94170C60E00C9485
:10185000BF0B8091CE0181112EC00E94271D8111E6
:1018600004C00E94DA1D0E9404080E94EE076093E3
:10187000C7027093C8028093C9029093CA026E7F18
:1018800061F40E9404080E94EE076093C7027093FF
:10189000C8028093C9029093CA020E94DB0710928B
:1018A000D0018091C70280FF03C086950E94260C5C
:1018B00081E08093CE010895E7ECF2E080818160C1
:1018C000808386950C94260C1092D00108950F9376
:1018D0001F93CF93DF938091D001882309F48CC0AC
:1018E0008091CF01E091C702E695E81BE093CA0121
:1018F000823049F4F0E0E25AFD4FE491CE2FD0E07F
:1019000007E918E049C0863049F4F0E0E55AFD4F98
:10191000E491CE2FD0E00BEA18E03EC0893051F4BC
:10192000E695F0E0E85AFD4FE491CE2FD0E005EEC9
:1019300019E032C08F3051F4E695F0E0EB5AFD4FDC
:10194000E491CE2FD0E000E21AE026C0853149F4C0
:10195000F0E0EE5AFD4FE491CE2FD0E005E91AE019
:101960001BC0883181F0833239F4E0E5F2E0C591A3
:10197000D4910BEB18E010C0843251F4C4EFD1E0E5
:1019800000E41BE009C0C8EED3E007E01BE004C0A0
:10199000C0EDD7E00CEC17E08091CB01882389F0F3
:1019A0001092CB010E94481F9E0120953095820F16
:1019B000931F9093C9018093C8011092CD0110929A
:1019C000CC018091C8019091C9010E94541F8C17CD
:1019D0009D0790F0E091C801F091C901CE0FDF1F83
:1019E000D093C901C093C80188EC91E0F801DF9160
:1019F000CF911F910F910994DF91CF911F910F917A
:101A00000895882311F0FA0101C0FB010994CF93D6
:101A1000DF93C82FD62F0E9413088C1740F00E9426
:101A200013088D1720F4DF91CF910C94040C8C2FA8
:101A3000DF91CF910C94140C0F931F93CF93FB0164
:101A4000C281CC2309F463C08C010E94761C82728F
:101A5000F801E25CFC45E431F10508F059C0EA5AAE
:101A6000FF4F0C944A2B0E941F0C06C041E15CE022
:101A700064E07CE00E94010DC0E04AC044E05CE00C
:101A800061E17CE0F7CF43EA59E066E979E0F2CF23
:101A900046E959E063EA79E0EDCF41EC59E062EBC9
:101AA00079E0E8CF42EB59E061EC79E0E3CF4FED2C
:101AB00059E060ED79E0DECF40ED59E06FED79E07F
:101AC000D9CF4CE258E06BE178E0D4CF4BE158E05D
:101AD0006CE278E0CFCF81E017C065E082E010C013
:101AE00068E086E00DC06EE089E00AC064E18FE046
:101AF00007C067E185E104C088E106C062E289E1D0
:101B00000E94070DB9CF83E20E94140CB5CFC1E04B
:101B10008C2FCF911F910F9108950E94271D811145
:101B200002C00E94DA1D0E94621D8093FC02282FD1
:101B300026952695269530E02630310524F08770CD
:101B400088628093FC028091FC0280FF04C086952D
:101B50008695869501C080E00C949C0E2091FC0235
:101B6000822F869586958695482F50E04530510501
:101B700054F48F5F982F990F990F990F822F8770C8
:101B8000892B8093FC028091FC0281608093FC028F
:101B90000E94661D8091FC028695869586950C9420
:101BA0009C0E8091FC02982F969596959695A1F0A3
:101BB000915E990F990F990F8770892B8093FC0282
:101BC000887F91E009F490E08091FC0290FB80F91D
:101BD0008093FC020E94661D8091FC02869586958A
:101BE00086950C949C0E8091FC0280FD13C0816050
:101BF0008093FC02813019F489E08093FC0280918B
:101C0000FC020E94661D8091FC0286958695869551
:101C10000C949C0E08958091FC0280FF08C08E7F7A
:101C20008093FC020E94661D80E00C949C0E089537
:101C30008091FC0280FD0C940B0E0C94F30D90919E
:101C4000FC02892F8695869586958F5F8F71977098
:101C5000863038F4880F880F880F892B8093FC0218
:101C600002C09093FC028091FC02887F91E009F40D
:101C700090E08091FC0290FB80F98093FC020E942E
:101C8000661D8091FC028695869586950C949C0E27
:101C9000863008F085E09091FC029770282F220F83
:101CA000220F220F922B9093FC02987F21E009F4DF
:101CB00020E09091FC0220FB90F99093FC020C94A0
:101CC0009C0E0E94480E8091FC020C94661D9C01A3
:101CD000FB018281882349F12D3BFCE53F07C9F0D8
:101CE00040F42B3BECE53E0769F02C3B3C4561F0B2
:101CF00008952F3B9CE5390791F070F0203C3C455E
:101D000089F0089585E001C080E00E94610E80E0C6
:101D100008950E94D10DFBCF0E94AE0DF8CF0E9416
:101D2000180EF5CF0E941F0EF2CF81E00895269A7B
:101D30002E9808952E980895CF92DF92EF92FF92F9
:101D4000CF93C82F863050F4811109C08091800054
:101D50008F7D809380000E949A0E06C0C5E080911E
:101D600080008062809380002C2F30E0AFEFBFEFC7
:101D70000E94502B25E030E040E050E00E94282BEC
:101D8000C9012C3764E1360728F469E070E00E944D
:101D9000002B29C0DA01C9018A50974DAF4FBF4FC0
:101DA0006627782F892F9A2F25EF38E241E050E0FF
:101DB0000E94282B69017A01CA01B9010E94F02A08
:101DC0009B01AC01C701B6010E94F02ABB27A92FD5
:101DD000982F872F009721E0A207B10511F0BC01D1
:101DE00002C06FEF7FEF70938B0060938A00CF91FA
:101DF000FF90EF90DF90CF90089508950E94970E86
:101E000082E28093800089E1809381008FEF9FEFD1
:101E100090938700809386000C948D0D2EB1342F03
:101E2000309523233EB1432B3FB7F894FC01680F54
:101E3000791FE617F70789F0819198E04EB9000005
:101E400000C087FF2EB9880F000000C000C000C08E
:101E50002EB900C09A9591F7ECCF3FBF08952DB1F0
:101E6000242B2DB99B01220F331F620F731F0E9479
:101E70000E0F87EC90E00197F1F700C00000089585
:101E800044E00C942F0F0F931F93CF93DF93C62F33
:101E9000D42F122FFC0182818823C9F06093D301D3
:101EA0000E94481F9093D2018093D10180E28C0F51
:101EB000883008F057C0C77081E001C0880FCA950C
:101EC000EAF7DF91CF911F910F910C94EA13809163
:101ED000D301681330C08091D1019091D2010E944A
:101EE000541F883C910538F500E20D0FCD17B9F06D
:101EF00080E28C0F883040F4C77081E001C0880F09
:101F0000CA95EAF70E94F113083028F581E09D2F69
:101F1000977001C0880F9A95EAF70E94EA13812F03
:101F20000E94D7130830F0F4D77081E001C0880F09
:101F3000DA95EAF70AC080E28C0F883098F4C7700F
:101F400081E001C0880FCA95EAF7DF91CF911F9118
:101F50000F910C94F113812FDF91CF911F910F916D
:101F60000C94D713DF91CF911F910F9108959C018D
:101F7000CB01233F4CE53407F9F078F4283DFCE52C
:101F80003F07B9F0293D4CE5340711F1273D3C45A9
:101F900031F526E241EE61EE1EC0253FFCE53F072C
:101FA00099F070F0263F3C45D1F427E245EE66EE0D
:101FB00012C027E245EE0EC026E241EE60EE0BC0F5
:101FC00027E245EE64EE07C026E241EE62EE03C072
:101FD00028E241E065EE0E94430F80E00895FC0195
:101FE0008281882319F01092D301089581E0089529
:101FF000CF93DF93EC01FB018281882309F41FC199
:10200000C230FCE5DF0708F41BC1C6319CE5D907E7
:1020100038F09E012A5F3C452930310508F010C197
:102020000E94441D9093040380930303C031ECE5A8
:10203000DE0709F4C3C008F041C0C8308CE5D807FA
:1020400009F49AC0F0F4C430ECE5DE0709F487C067
:1020500068F4C2308CE5D80709F477C0C330DC459A
:1020600009F0E3C080910303826076C0C630ECE5DE
:10207000DE0709F46EC008F07BC08091030388601E
:102080006BC0CC308CE5D80709F485C068F4CA3041
:10209000ECE5DE0709F474C008F079C00E949316DD
:1020A00080910303806858C0CE308CE5D80709F4CE
:1020B00076C008F07FC0809103038BC0CB3FECE576
:1020C000DE0709F44FC018F5C3318CE5D80709F4D1
:1020D0007DC078F4C131ECE5DE0709F473C0C2318C
:1020E000DC4509F0A2C00E949316809103038F770C
:1020F00033C0C5318CE5D80709F472C008F486C036
:10210000CA3FDC4509F091C0809104033EC0CF3F37
:10211000FCE5DF0709F45FC058F4CD3F9CE5D90723
:1021200009F444C008F43FC08091040382602DC0CC
:10213000C130FDE5DF0709F475C008F45DC0C230A9
:10214000DD4509F072C080E06EC0809103038160BC
:1021500003C08091030380618093030366C0809174
:10216000030311C0809104038260809304035DC067
:10217000809103038062F0CF809103038064ECCFF1
:102180008091030388608460E7CF8160EECF809107
:1021900003038E7FE1CF809103038D7FDDCF80919C
:1021A0000303877FD9CF8091040318C08091040373
:1021B0008D7FDBCF809103038F7ECECF8091030391
:1021C0008F7DCACF809103038F7BC6CF809103039D
:1021D000877F8B7FC1CF809104038D7F8E7FC5CF9A
:1021E0008091030382FB222720F991E0922790FB44
:1021F00082F990FB83F9B0CF80910403982F9095DA
:1022000091708E7F892B90FB81F9AFCF0E9493163E
:102210008091030387FB222720F991E0922790FB0E
:1022200087F99ACF81E00E94DC1D80910303909191
:1022300004030E94551D0E94931680E001C081E0B6
:10224000DF91CF910895CF93DF9386319C4541F57F
:10225000EB010E94761C982F8A8120911001309109
:102260001101882379F09A7A81E009F480E0809363
:10227000D401911102C069E201C065E3C9010E9465
:10228000771E0AC08091D401811102C069E201C0A9
:1022900065E3C9010E94821E0E94C41C80E001C047
:1022A00081E0DF91CF9108959093DA018093D90175
:1022B0000895E091D901F091DA01309721F0019071
:1022C000F081E02D099480E00895E091D901F0912A
:1022D000DA01309799F020912401222359F02091BE
:1022E000030327FF07C0DC012C9111962C93119753
:1022F00025E02C930280F381E02D09940895E0916C
:10230000D901F091DA01309739F022E0DC012C9309
:102310000480F581E02D099408952091D701309132
:10232000D8012817390771F09093D8018093D7010D
:10233000E091D901F091DA01309721F00680F78120
:10234000E02D099408952091D5013091D6012817E8
:10235000390771F09093D6018093D501E091D901AE
:10236000F091DA01309721F00084F185E02D099495
:10237000089585B7806885BF85B7806885BF089553
:1023800008950C94C0110C94C1110C94C0110C94BC
:10239000C0110E94B9110E94C5110C94C31181E0B3
:1023A00008950E943F1F0E9417060E9414200E9459
:1023B0008D0D0E94290C0C94C7117F928F929F92D1
:1023C000AF92BF92CF92DF92EF92FF920F931F9343
:1023D000CF93DF93CDB7DEB72A970FB6F894DEBF61
:1023E0000FBECDBF0E9469060E94CF11811111C09E
:1023F0008FEF89838A831B820E94481F8160782F18
:102400009D838C8349815A816B818D810E949112B9
:102410004FC04CEDA42E41E0B42E00E010E0702E31
:10242000802F0E9404066C01F501819091905F015C
:10243000882699268114910431F40F5F1F4F0530CF
:10244000110569F7D5CF80917E0281FD0E940D06AE
:1024500080E0EE24E394F12C94012E213F21232BE4
:1024600009F18E837F82CE20DF2081E0CD2809F420
:1024700080E088870E94481F8160782F9A8789872B
:102480004E815F8168858A850E949112000F111F1D
:10249000F801E452FE4F80819181E826F926F1820D
:1024A000E08206C08F5FEE0CFF1C8F30A9F6C5CF0F
:1024B0000E94670C0E94FD0E0E94C8220E945911C2
:1024C0009091DB018917C9F00E9459118093DB01BB
:1024D0002A960FB6F894DEBF0FBECDBFDF91CF9125
:1024E0001F910F91FF90EF90DF90CF90BF90AF9032
:1024F0009F908F907F900C9495032A960FB6F89436
:10250000DEBF0FBECDBFDF91CF911F910F91FF9026
:10251000EF90DF90CF90BF90AF909F908F907F9083
:102520000895CF93DF93CDB7DEB72B970FB6F8940E
:10253000DEBF0FBECDBF4F83588769877A878B87F1
:10254000DE01119686E0FD0111928A95E9F785E09A
:10255000FE01379601900D928A95E1F749815A81E3
:102560006B817C818D819E810E9463192B960FB6B1
:10257000F894DEBF0FBECDBFDF91CF910895FC016F
:10258000808191810E94371C0895CF93882309F49C
:10259000A4C0C82F8238C1F40E94591181FD9DC08A
:1025A00069E380911001909111010E94771E0E94B1
:1025B000C41C2FEF81EE94E0215080409040E1F761
:1025C00000C0000069E319C0833801F50E94591169
:1025D00080FD83C063E580911001909111010E94FC
:1025E000771E0E94C41C2FEF81EE94E021508040A2
:1025F0009040E1F700C0000063E5809110019091E8
:1026000011010E94821ECF910C94C41C8438C1F425
:102610000E94591182FD61C067E480911001909180
:1026200011010E94771E0E94C41C2FEF81EE94E0DE
:10263000215080409040E1F700C0000067E4DDCF0A
:102640008CEF8C0F813AD0F46C2F80911001909117
:1026500011010E94F71D882349F06C2F8091100111
:10266000909111010E94821E0E94C41C6C2F8091C7
:102670001001909111010E94771EC5CF80E28C0F4E
:10268000883048F4C77081E001C0880FCA95EAF726
:102690000E94791CB8CFEBE5EC0FE33040F4F0E09A
:1026A000E354FE4F808190E0CF910C948D11E8E5CA
:1026B000EC0FE73150F4F0E0EE0FFF1FE157FE4F53
:1026C00080819181CF910C94A311C03F30F08C2F69
:1026D0000E94D021CF910C94BD22CF9108958823E0
:1026E00009F464C0823879F40E94591181FF5EC0F8
:1026F00069E380911001909111010E94771E0E9460
:10270000C41C69E310C08338B1F40E94591180FFE2
:102710004DC063E580911001909111010E94771ED8
:102720000E94C41C63E580911001909111010E94E8
:10273000821E0C94C41C843879F40E94591182FFC3
:1027400035C067E480911001909111010E94771EBD
:102750000E94C41C67E4E7CF9CEF980F913A10F4F5
:10276000682FE1CF90E2980F983050F4877091E095
:1027700001C0990F8A95EAF7892F0E947F1CD9CF53
:102780009BE5980F933020F480E090E00C948D113D
:1027900098E5980F973120F480E090E00C94A31115
:1027A000803F20F00E9438220C94BD220895CF93E0
:1027B000C82F0E94C512C93349F42FEF87EE93E06A
:1027C000215080409040E1F700C000008C2FCF9155
:1027D0000C946F13882321F00E94791C0C94C41C64
:1027E0000895882321F00E947F1C0C94C41C089536
:1027F000CF92DF92EF92FF920F931F93CF93DF93CD
:102800007C01062FC72FFC01158112951F70D28104
:10281000D1110E94961C0E946F1C882379F0DD2341
:1028200069F080E2800F883048F082E00E940E1D3F
:102830000E946F1C91E0D82ED92601C0D12CCC2E3D
:10284000C2948FE0C8228C2D90E0FC01E659FF4F26
:102850000C944A2B8C2F807FCF70882311F0C29567
:10286000C07FDD2399F0CC2309F4C4C180E2800F3E
:10287000883010F0011104C08C2F0E94791C03C015
:102880008C2F0E94891C0E94C41CB4C1802F0E94FE
:102890006F13CC2309F4D3C180E2800F883010F08D
:1028A000011104C08C2F0E947F1C03C08C2F0E943A
:1028B0008F1C0E94C41CC3C18C2F807FCF708032BC
:1028C00011F0C295C07F002319F00130C9F022C079
:1028D000DD2371F0112341F0113031F40E94A91C65
:1028E0008C2B0E94B11CABC10E94A91C8C2B1DC05B
:1028F000112319F0113009F4A2C10E94BA1C25C09D
:10290000DD2321F0163008F09AC10EC0153008F012
:1029100096C11BC0DD2361F0112331F0F7018581E1
:1029200080FF68C18F7085838C2F0E94EA1387C156
:10293000112359F0093309F06EC1FFEF27EE83E050
:10294000F15020408040E1F764C18C2F0E94F113C8
:1029500076C18C2F86958695837019F0813061F051
:102960006EC1DD2321F0802F9C2F937002C080E088
:1029700090E00E948D116BC1DD2321F0802F9C2FF0
:10298000937002C080E090E00E94A31160C1DD233B
:10299000F9F0053F51F0063F71F0043FA9F4809132
:1029A000FD029091FE0281600BC08091FD0290912A
:1029B000FE02826005C08091FD029091FE0284605B
:1029C0009093FE028093FD02802F0E94D0211EC0B2
:1029D000053F51F0063F71F0043FA9F48091FD02DC
:1029E0009091FE028E7F0BC08091FD029091FE02BD
:1029F0008D7F05C08091FD029091FE028B7F9093A8
:102A0000FE028093FD02802F0E9438220E94BD2288
:102A10001EC18C2F837009F045C0D11114C1402F05
:102A2000429546954770440F440F602F6F70862F74
:102A300090E0A0E0B0E0042E04C0880F991FAA1F08
:102A4000BB1F0A94D2F704FF10C00FE010E020E093
:102A500030E004C0000F111F221F331F4A95D2F728
:102A6000009510952095309503C000E010E0980186
:102A7000C695C695C370BC01CD01602B712B822B0E
:102A8000932BC23049F058F4C13019F00E94B41AA7
:102A9000DAC00E94A21AD7C00E94C61AD4C00E94EF
:102AA000A01AD1C0DD2319F08C2F817001C086954A
:102AB000882309F4C8C0402F429546954770440FBB
:102AC000440F602F6F70862F90E0A0E0B0E0042EDE
:102AD00004C0880F991FAA1FBB1F0A94D2F704FFD6
:102AE00010C00FE010E020E030E004C0000F111F24
:102AF000221F331F4A95D2F70095109520953095E7
:102B000003C000E010E09801C695C695C370BC01F3
:102B1000CD01602B712B822B932BC23049F058F4DE
:102B2000C13019F00E94791B8EC00E94671B8BC0B8
:102B30000E948B1B88C00E94DA1A85C0CF70DD23EB
:102B400039F08C2F0E94001B802F0E94EA137BC05B
:102B5000802F0E94F1138C2F0E94211B74C0023F12
:102B600001F128F4003F41F0013FA1F03FC0033FD5
:102B7000F9F0043F39F13AC0DD2341F0153008F097
:102B80005EC08C2F8F710E94461B59C0163008F012
:102B900056C0F7CFDD2339F08C2F8F710E94001BB8
:102BA0004EC0DD23C9F38C2F8F710E94211B47C0BB
:102BB000DD2329F08C2F8F710E94EB1A40C00E94F8
:102BC000E61A3DC0DD2349F0CF718C2F0E94001B17
:102BD00063E08C2F0E94F91C32C081E00E940E1D20
:102BE000123068F182E00E940E1D29C0DD2331F011
:102BF000112391F2802F0E94C51221C0112399F256
:102C0000093349F49FEFE7EEF3E09150E040F040E4
:102C1000E1F700C00000802F0E946F1310C04C2FFE
:102C20004F70602FC7010E94F6030E94111A0FC057
:102C30004C2F4F70602FC7010E94F90308C088EF26
:102C40008C0D843020F40E9459110E949503DD20E0
:102C5000C9F00E946B1C80FD15C0F70112820E9412
:102C6000651C0E94001BC7010E944B160E94651C38
:102C7000DF91CF911F910F91FF90EF90DF90CF9058
:102C80000C94211BDF91CF911F910F91FF90EF903A
:102C9000DF90CF9008950F931F93CF93DF93EC01B4
:102CA000988189812B813C81232B31F08F3F31F436
:102CB00081E09F3F19F403C081E001C080E080FD06
:102CC00013C0CE010E94AE03882371F06881798120
:102CD0008A810E94421C8C010E949D1B0E948E1AB8
:102CE000B801CE010E94F813DF91CF911F910F918F
:102CF00008950E94961C0E94A61C0E94C41C0E945B
:102D0000E7230E94BD2280E090E00E948D1180E0C8
:102D100090E00C94A31180911001909111010E94F8
:102D20008D1E0C9479160E94861C0C948B16E92F2C
:102D3000E295EF704E2F50E0FA013297EE30F10538
:102D4000B0F4E658FF4F0C944A2B803F91F018F4F2
:102D5000883E68F40EC0843F51F40BC0883E48F0B2
:102D6000813F29F406C093FB882780F9089580E00D
:102D7000089581E008950E94371C0E9497160895D7
:102D8000CF93DF9300D000D01F92CDB7DEB70F9066
:102D90000F900F900F900F90DF91CF910895CF93E8
:102DA000DF9300D000D000D0CDB7DEB726960FB6A7
:102DB000F894DEBF0FBECDBFDF91CF9108951F9372
:102DC000CF93DF93C091E70116E08091E801C81727
:102DD00099F0D0E01C9FF0011D9FF00D1124E751E8
:102DE000FE4F4081518162817381848195810E946F
:102DF000CF162196C770E9CFDF91CF911F9108952B
:102E00004091190250911A0260911B0270911C02AC
:102E100080911D0290911E020C94CF16CF93809149
:102E20001E0282958F7009F05FC080911B0288237B
:102E300009F45AC08091E701B091E801709119023C
:102E4000A0911A0240911C0250911D0291E07F3F17
:102E500009F090E0692FC6E08B1709F445C04115D1
:102E6000510521F0AF3F21F020E003C021E001C077
:102E7000262F90E020FD35C0C89FF001C99FF00DBE
:102E80001124E751FE4F21812A132BC020812713E3
:102E900028C02281211125C02381348124173507C0
:102EA00010F421503109241B350B283C3105C8F49E
:102EB00020911E022F70206120931E0226E0289F81
:102EC000F001299FF00D1124E251FE4F80818F7097
:102ED0008061808389E192E00E944B16CF910C942F
:102EE000DF1601968770B8CFCF910895AF92BF9249
:102EF000CF92DF92EF92FF920F931F93CF93DF93C6
:102F0000CDB7DEB761970FB6F894DEBF0FBECDBF69
:102F10008C0185E0F801DE011D9601900D928A95E5
:102F2000E1F7D8014C9111965C9111971296EC90B3
:102F30003091190260911A0280911C0290911D0239
:102F4000009731F06F3F31F421E03F3F19F403C0A7
:102F500021E001C020E0B22FB170BB2E20FD60C186
:102F6000F801C380D480A0901B02AA2009F4EEC00F
:102F700020911E02C816D90628F0D601A81BB90B4D
:102F8000CD0104C0809590958C0D9D1DFF24F39478
:102F9000883C910580F0F12C207F09F09CC07C2DAD
:102FA000D98AC88A6E2D89890E94C01689E192E06B
:102FB0000E944B162DC1822F807F09F054C05613FA
:102FC00014C0431312C0FE2CE1100FC02F702061FB
:102FD00020931E020E94001789E192E00E944B1686
:102FE00080911E02F80185835CC1CD2831F05F3FDE
:102FF00031F481E04F3F19F403C081E001C080E06B
:1030000080FD03C081E08E2502C080E090E0F82FB3
:10301000F170FF2E80FF1CC08091E7012091E80134
:1030200036E0821709F41AC190E0389FF001399F09
:10303000F00D1124E751FE4F6181561306C06081E7
:10304000461303C06281E61203C001968770E9CF80
:10305000FE2CEE2009F425C180911E028160809330
:103060001E02F12C1EC1561309C0431307C0E11004
:1030700005C080911E02F8018583A4C04D875E873C
:103080008D859E850E94BB16882379F1EE2069F11B
:1030900020911E02822F82958F7090E0029774F02B
:1030A0008091190290911A0298878F831986DB8686
:1030B000CA862C87CE0107960E944B1686E0F8013F
:1030C000A9E1B2E001900D928A95E1F70E940E17F6
:1030D0000E9400170DC0561771F04D875E878D85D1
:1030E0009E850E94BB1681111AC0C8010E944B1612
:1030F000FF24F394D6C04313F0CFE110EECF8091BC
:103100001E02F8018583C8010E944B1686E0E9E1A2
:10311000F2E0DF011D928A95E9F7FA2CC2C0EE2099
:1031200021F320911E02822F82958F7090E00297EA
:103130002CF28091190290911A029A8389831B8242
:10314000DD82CC822E83CE010196B6CFC816D90679
:1031500028F0F601E81BF90BCF0104C0809590958B
:103160008C0D9D1D883C910548F0F12C7C2DD98A51
:10317000C88A6E2D89890E94C0164AC0FE2CEE2096
:1031800009F4B3CF561333C0431331C020911E024C
:1031900020FD24C0822F82958F70482F50E041156A
:1031A0005105E1F0D80115962C9315974F30510534
:1031B00049F08F5F982F9295907F822F8F70892B87
:1031C00015968C93C8010E944B1686E0F801A9E180
:1031D000B2E001900D928A95E1F73DC086E0F801DA
:1031E000A9E1B2E001900D928A95E1F75AC04D87AE
:1031F0005E878D859E850E94BB1681115FCF809171
:103200001E02816080931E02C8010E944B1649C0B5
:10321000E9E1F2E086E0DF011D928A95E9F71BC043
:10322000EE2009F462CF4D875E878D859E850E94D2
:10323000BB16F82E882309F458CF86E0F801A9E1DF
:10324000B2E001900D928A95E1F789E192E00E9447
:10325000BF120E940E170E94001723C04D875E8781
:103260008D859E850E94371C292F22952F70223034
:1032700028F49F7039F0811105C00BC0243028F468
:103280009F7049F4805E883020F0C8010E944B1680
:10329000BF2CFB2C06C0D80115969C91907F91F70E
:1032A000F8CF8F2D61960FB6F894DEBF0FBECDBF5D
:1032B000DF91CF911F910F91FF90EF90DF90CF9012
:1032C000BF90AF9008951F93CF93DF93CDB7DEB734
:1032D0002C970FB6F894DEBF0FBECDBF4F83588733
:1032E00069877A878B879C87CE0107960E9476171D
:1032F0008823D1F09F8188852A853B85232B31F057
:103300008F3F31F481E09F3F19F403C081E001C099
:1033100080E080FD47C04F81588569857A858B851F
:103320009C850E94CF163EC086E0FE013796DE01E6
:10333000119601900D928A95E1F7FF81E8856A85E3
:103340007B856115710531F0EF3F31F481E0FF3F7E
:1033500019F403C081E001C080E080FD23C020910A
:10336000E80130E0C9010196877099274091E70193
:1033700050E084179507F1F1F983EA837D836C832C
:1033800096E0929FD001939FB00D1124A751BE4F9C
:10339000FE01319601900D929A95E1F78093E80134
:1033A0000E94DF1616E08091E7019091E8018917ED
:1033B00071F1189FC001112487519E4F0E9476170A
:1033C000882329F1E091E7011E9FF0011124E751C4
:1033D000FE4F4081518162817381848195810E9479
:1033E000CF168091E70190E001968770992780932E
:1033F000E701D9CF0E9493161092E8011092E701DD
:10340000E9E1F2E086E0DF011D928A95E9F72C966A
:103410000FB6F894DEBF0FBECDBFDF91CF911F91E5
:103420000895EF92FF920F931F93CF93DF938C0138
:10343000892B09F46CC0F12CEE24E394E801219669
:10344000F8018491843740F4843008F051C0813011
:1034500081F0823019F15BC0853709F444C0A8F1CE
:103460009CE7980F903708F052C08F770E946F1337
:1034700041C00E5F1F4FFE01849190E2980F98307B
:1034800050F48770FE2D01C0FF0F8A95EAF78F2F49
:103490000E94991C14C00E94C5122DC00E5F1F4FC0
:1034A000FE01849190E2980F983060F48770FE2DB1
:1034B00001C0FF0F8A95EAF78F2F0E949F1C0E9480
:1034C000C41C19C00E946F1316C00E5F1F4FFE016F
:1034D000C491CC2381F08FE99FE00197F1F700C000
:1034E0000000C150F6CF0E5F1F4FFE01F49003C0E5
:1034F0000E94C5128E018F2D882309F49FCFEFE91A
:10350000FFE03197F1F700C000008150F5CFDF9167
:10351000CF911F910F91FF90EF9008950895089516
:103520000C948F1A0C94901A0E94921A6093550270
:103530007093560280935702909358020C94791618
:103540000C94941A0F931F930091550210915602F8
:103550002091570230915802602B712B822B932BB4
:103560001F910F910C94941A0F931F930091550281
:103570001091560220915702309158026023712316
:10358000822393231F910F910C94941A0F931F93EE
:103590000091550210915602209157023091580225
:1035A00060277127822793271F910F910C94941AFB
:1035B0000C948F1A0E94D81A609351027093520291
:1035C00080935302909354020C94791660E070E05B
:1035D000CB010C94DA1A0F931F9341E050E060E0A6
:1035E00070E08A019B0104C0000F111F221F331FCE
:1035F0008A95D2F7C901B8011F910F910C94DA1A7C
:103600000F931F9341E050E060E070E004C0440F6E
:10361000551F661F771F8A95D2F7809151029091AE
:103620005202A0915302B09154028A019B01082BCF
:10363000192B2A2B3B2BC901B8011F910F910C9418
:10364000DA1A0F931F9341E050E060E070E004C08D
:10365000440F551F661F771F8A95D2F740955095E6
:10366000609570958091510290915202A091530201
:10367000B09154028A019B01082319232A233B237A
:10368000C901B8011F910F910C94DA1A0F931F937F
:1036900041E050E060E070E004C0440F551F661F39
:1036A000771F8A95D2F78091510290915202A09192
:1036B0005302B09154028A019B01082719272A2737
:1036C0003B27C901B8011F910F910C94DA1A0F938F
:1036D0001F93009151021091520220915302309198
:1036E0005402602B712B822B932B1F910F910C9402
:1036F000DA1A0F931F9300915102109152022091F8
:1037000053023091540260237123822393231F912B
:103710000F910C94DA1A0F931F930091510210919C
:103720005202209153023091540260277127822760
:1037300093271F910F910C94DA1A08952FE0929F0E
:10374000800D1124E82FE695E695E695877051E007
:1037500001C0550F8A95EAF785E0E89FF001112432
:10376000E15EFD4F20E030E070E04081CB01022EB1
:1037700002C0969587950A94E2F781708195842717
:103780008523842781932F5F3F4F2530310569F7CB
:1037900008952FE0929F800D1124682F66956695FD
:1037A0006695982F977085E0689FB001112440E0DE
:1037B00050E080E0FB01E40FF51FE15EFD4F20814A
:1037C00030E0092E02C0369527950A94E2F7217061
:1037D0003327042E01C0220F0A94EAF7822B4F5F91
:1037E0005F4F4530510531F70895BF92CF92DF9278
:1037F000EF92FF920F931F93CF93DF938C01C090B2
:103800005102D0905202E0905302F0905402809105
:10381000550290915602A0915702B0915802C82AC1
:10382000D92AEA2AFB2ACFE1D0E0D701C6010C2E23
:1038300004C0B695A795979587950A94D2F780FD11
:1038400004C0219790F7B12C07C0BC2EB8018C2F73
:103850000E9415040197A9F38B2DDF91CF911F9141
:103860000F91FF90EF90DF90CF90BF900895CF938E
:10387000DF93EC010E94F51BBE010E941504DF914D
:10388000CF9108951F93CF93DF93EB019091E601C1
:10389000992321F0CB010E94371C13C0882349F0E3
:1038A000CB010E94F51B182F682FCE010E949E1B92
:1038B00004C0CB010E94C91B182FBE01812F0E949A
:1038C0001504DF91CF911F9108958091590285953C
:1038D00085958595089580915902877008959091F6
:1038E0005902977081E009F480E0089580917D028B
:1038F000089590917D02892B80937D020895809593
:1039000090917D02892380937D02089510927D021B
:10391000089590917C02892B80937C020895809574
:1039200090917C02892380937C02089510927C02FE
:10393000089590917B02892B80937B020895809556
:1039400090917B02892380937B02089510927B02E1
:10395000089580915A02089508950C94AC1C0C941B
:10396000AD1C90915A02981721F080935A020C9442
:10397000AF1C089580915A02882329F010925A02B0
:1039800080E00C94AF1C0895E0911001F0911101BA
:1039900080917D028083E0911001F091110190816E
:1039A00080917C02892B8083E0911001F0911101BC
:1039B000908180917B02892B808380915A02882399
:1039C00081F0E0911001F09111019081892B8083A9
:1039D00080911001909111010E94E11D81110E94BE
:1039E000BA1C80911001909111010C9465110C94F6
:1039F000AC1C98E0899F90011124262B209359023A
:103A00000E94001B809159028595859585950C949F
:103A1000F71C1092590280E00C94F71C2091590277
:103A20008095822380935902982F977079F430E023
:103A3000482F082E000C550B2417350739F08595B3
:103A4000859585950E94211B0C94091D089580E0A1
:103A500090E00E94852B21E08C3E9E4F09F020E0F3
:103A6000822F089582E090E00C94772B682F82E0FB
:103A700090E00C948B2B83E090E00C94772B682FD4
:103A800083E090E00C948B2BCF9384E090E00E9435
:103A9000772BC82F81E290E00E94772B2C2F30E00B
:103AA000A901582BCA01CF910895CF93C92F682F30
:103AB00084E090E00E948B2B6C2F81E290E0CF910C
:103AC0000C948B2B86E090E00C94772B682F86E08B
:103AD00090E00C948B2BAB01BC018FE090E00C9438
:103AE0009D2BAB01BC0183E190E00C949D2B60E029
:103AF00070E0CB010C94711D60E070E0CB010E947E
:103B00006B1D0C94771D6CEE7EEF80E090E00E94C0
:103B1000A92B60E082E090E00E948B2B60E083E0C4
:103B200090E00E948B2B1092550210925602109238
:103B300057021092580260E084E090E00E948B2BC4
:103B400060E081E290E00E948B2B60E085E090E0F5
:103B50000E948B2B60E086E090E00E948B2B6FEF41
:103B600087E090E00E948B2B40E050E0BA0188E0B3
:103B700090E00E949D2B60E08DE090E00E948B2BF6
:103B800040E050E0BA0188E190E00E949D2B60E0A7
:103B900087E190E00E948B2B40E050E0BA018CE17D
:103BA00090E00E949D2B60E080E290E00E948B2BD1
:103BB0000C947C1D0C94831D682F8EE090E00C9477
:103BC0008B2BFC01329680912401882331F0809167
:103BD000030387FF02C09EE101C096E080E09150A0
:103BE00028F021912223D9F38F5FF9CF089566231E
:103BF00051F1209124012223E9F02091030327FFB2
:103C000019C0462F4695469546954E31E0F46770AB
:103C100021E030E002C0220F331F6A95E2F7FC0179
:103C2000E40FF11D828190E02823392381E0232BCA
:103C300069F409C0FC01329608962191621729F0B7
:103C4000E817F907D1F780E0089581E008959C0115
:103C5000FC0132969FEF80E04191461789F09F3F2B
:103C600019F4411101C0982F8F5F8630A9F79F3F4B
:103C700039F0F901E90FF11D97FDFA956283089576
:103C800008959C012A5F3F4FFC014281461301C009
:103C90001282019682179307B9F70895262F269569
:103CA000269526952E3168F4FC01E20FF11D677010
:103CB00021E030E001C0220F6A95EAF78281282BCB
:103CC00022830895262F2695269526952E3170F469
:103CD000FC01E20FF11D677021E030E001C0220F0E
:103CE0006A95EAF7209582812823228308952091FE
:103CF0002401222329F02091030327FD0C944E1E5A
:103D00000C94271E20912401222329F020910303E3
:103D100027FD0C94621E0C94411E20912401FC018D
:103D20003296222331F08091030387FF02C08EE197
:103D300001C086E0DF011D928A95E9F70895089594
:103D40000C949F1E0C949F1ECF930E94A21E0E9453
:103D500069060E94A01EC0E08C2F0E940406892BD9
:103D600029F4CF5FC530C1F780E001C081E0CF9179
:103D700008950C949F1E0C94B91E0E94BB1E809146
:103D80000903843009F43CC010927F0220E488E1EA
:103D900090E00FB6F894A895809360000FBE209332
:103DA000600080E00E949C0E80E00E9495030E94CB
:103DB000640C8091800281110AC081E080938002AE
:103DC0008091C7028170809381020E94970B0E94AC
:103DD000BB1E83B7817F846083BF83B7816083BF4D
:103DE0007894889583B78E7F83BF0FB6F894A89593
:103DF00080916000886180936000109260000FBE27
:103E000008950C949F1E0E9493160E948D0D0E948F
:103E100059110E94950310928002809181028111B4
:103E20000E945C0C0E94A90B0C94011F1F920F9220
:103E30000FB60F9211248F939F93AF93BF938091EE
:103E40007F02811113C08091FF0290910003A09125
:103E50000103B09102034196A11DB11D8093FF02A1
:103E600090930003A0930103B0930203BF91AF911D
:103E70009F918F910F900FBE0F901F90189582E029
:103E800084BD93E095BD9AEF97BD80936E00089531
:103E90002FB7F8948091FF0290910003A091010345
:103EA000B09102032FBF0895CF92DF92EF92FF925D
:103EB0000F931F932FB7F8944091FF025091000386
:103EC00060910103709102032FBF6A017B01EE2410
:103ED000FF248C0120E030E0C016D106E206F30694
:103EE00010F4415051099A01281B390BC9011F9147
:103EF0000F91FF90EF90DF90CF90089578941F92EC
:103F00000F920FB60F9211248F939F93AF93BF938D
:103F10008091FF0290910003A0910103B0910203F0
:103F20000196A11DB11D8093FF0290930003A09301
:103F30000103B0930203BF91AF919F918F910F90B6
:103F40000FBE0F901F90189581E08093E00080E2F3
:103F50008093D8001092C9008FE19EE40197F1F799
:103F600000C0000087E090EBDC0180931203909387
:103F70001303A0931403B09315039CE088E10FB6DC
:103F8000F894A895809360000FBE90936000FFCFD7
:103F9000AF92BF92CF92DF92EF92FF920F931F9357
:103FA000CF93C0E0CC24C394D12CE82EF12C8C2FDD
:103FB0000E9404065C0100E010E0C601002E02C071
:103FC000880F991F0A94E2F78A219B21892B31F4EB
:103FD0000F5F1F4F0F30110581F70AC0602F7C2F34
:103FE00080E00E94FA03E816F90691F781E004C028
:103FF000CF5FC530E1F680E0CF911F910F91FF9028
:10400000EF90DF90CF90BF90AF900895CF93C82FDF
:104010008CE20E94C81F882321F08C2FCF910C9432
:10402000C81F80E0CF910895CF930E94271D811172
:1040300002C00E94DA1DC5E6C15049F00E9469061F
:104040008FE39CE90197F1F700C00000F5CF89E20A
:104050000E940620811120C18AE20E94062081115F
:104060000E94DA1D85E00E94062081110E94A41F93
:104070000E94321D80937E0287E00E9406208823E2
:10408000A9F18BE10E940620882351F080917E02E5
:1040900081FB222720F991E0922790FB81F90EC045
:1040A0008EE00E940620882361F080917E0282FBD0
:1040B000222720F991E0922790FB82F980937E02DB
:1040C00015C080E10E94062090917E02882341F075
:1040D00093FB222720F981E0822780FB93F904C01B
:1040E000892F809580FB90F990937E0280917E02CB
:1040F0000E94361D0E94441D909304038093030385
:1041000080EE0E940620882341F080910303982FBF
:10411000909590FB80F98093030389E30E94062029
:10412000882359F08091030381FB222720F991E035
:10413000922790FB81F98093030382EE0E94062070
:10414000882359F08091030382FB222720F991E014
:10415000922790FB82F98093030386EE0E9406204B
:10416000882359F08091030383FB222720F991E0F3
:10417000922790FB83F98093030383EE0E9406202D
:10418000882359F08091030384FB222720F991E0D2
:10419000922790FB84F98093030385E30E94062015
:1041A000882359F08091030385FB222720F991E0B1
:1041B000922790FB85F98093030381E30E940620F8
:1041C000882359F08091030386FB222720F991E090
:1041D000922790FB86F98093030381E10E940620D9
:1041E000882359F08091030387FB222720F991E06F
:1041F000922790FB87F980930303809103039091AA
:1042000004030E94551D87E20E940620C82F8EE1FC
:104210000E9406208111C2608FE10E940620811158
:10422000C46080E20E9406208111C86081E20E9481
:1042300006208111C06182E20E9406208111C062C5
:1042400083E20E9406208111C06484E20E9406205D
:10425000882311F0C06802C0CC2329F08C2F0E9463
:104260003F1D6C2F03C00E943B1D682F70E080E053
:1042700090E00E94A01A8FE00E940620882319F087
:1042800081E00E94DC1D85E10E940620882321F048
:1042900080E0CF910C94DC1DCF910895809189022C
:1042A00080FF0BC06091170185E0689FB001112469
:1042B00075956795759567952BC081FF09C06091CD
:1042C000170185E0689FB00111247595679520C09E
:1042D00082FF07C06091170185E0689FB00111243B
:1042E00017C0909188029923D1F06091160196171A
:1042F00088F72091170185E0289F90011124929F53
:10430000A001939F500D112470E0CA010E94142B4C
:104310006038710540F46115710519F406C065E057
:1043200070E0862F08958FE7089581E008958091C9
:10433000890280FF08C06091130170E07595679550
:104340007595679521C081FF06C06091130170E0EB
:104350007595679519C082FF04C06091130170E0E4
:1043600010C090918802992399F0609112019617DC
:10437000A0F780911301899FC001112470E00E9471
:10438000142B6038710540F46115710519F406C0ED
:1043900061E070E0862F08958FE7089581E0089529
:1043A000803F21F40E944E21819504C0813F29F471
:1043B0000E944E2180938D020895823F21F40E9435
:1043C0004E21819504C0833F29F40E944E218093A1
:1043D0008C020895893F19F40E94972105C08A3FF5
:1043E00031F40E949721819580938E0208958B3F2E
:1043F00021F40E949721819504C08C3F29F40E94EA
:10440000972180938F020895843F21F480918B023D
:10441000816017C0853F21F480918B02826011C0BA
:10442000863F21F480918B0284600BC0873F21F48A
:1044300080918B02886005C0883F31F480918B02A7
:10444000806180938B0208958D3F21F480918902D1
:1044500081600BC08E3F21F480918902826005C08B
:104460008F3F29F4809189028460809389020895A6
:10447000803F39F480918D0287FF6CC010928D02CD
:1044800069C0813F29F480918D021816BCF362C087
:1044900090918C02823F29F497FF5CC010928C02AD
:1044A00059C0833F19F41916CCF354C0893F41F425
:1044B00080918E0218160CF04DC010928E024AC0E8
:1044C0008A3F29F480918E0287FF44C0F6CF8B3F4C
:1044D00039F480918F0287FF3DC010928F023AC05D
:1044E0008C3F29F480918F021816BCF333C0843FAF
:1044F00021F480918B028E7F17C0853F21F480913B
:104500008B028D7F11C0863F21F480918B028B7FBF
:104510000BC0873F21F480918B02877F05C0883FC5
:1045200031F480918B028F7E80938B0213C08D3F7C
:1045300021F4809189028E7F0BC08E3F21F48091FF
:1045400089028D7F05C08F3F29F4809189028B7F7E
:104550008093890280918C0281110EC080918D021E
:1045600081110AC080918E02811106C080918F0254
:10457000811102C01092880208958AE892E00E9498
:104580007F110E94481F90938702809386020895AE
:10459000CF93DF9300D000D000D0CDB7DEB786E058
:1045A000EAE8F2E0DE01119601900D928A95E1F7BA
:1045B00080918C02811105C080918D02882309F4BD
:1045C0007AC080918402909185020E94541FAC01B0
:1045D00090918802992339F02091180130E0241736
:1045E000350758F068C0209119018AE0289F900192
:1045F00011242417350718F05EC09F3F19F09F5F04
:104600009093880210928E0210928F0280918C02F9
:10461000181624F40E944E2180938C0280918C0203
:1046200087FF05C00E944E21819580938C02809166
:104630008D02181624F40E944E2180938D028091E1
:104640008D0287FF05C00E944E21819580938D02C7
:1046500030918C023323E1F020918D022223C1F0AE
:1046600045EB3403C0011124992319F090938C0277
:1046700003C081E080938C0235EB2303C001112439
:10468000992319F090938D0203C081E080938D02ED
:104690000E94BD22809186029091870290938502AC
:1046A0008093840286E0FE013196AAE8B2E0019090
:1046B0000D928A95E1F780918E02811105C080915B
:1046C0008F02882309F47AC080918202909183023C
:1046D0000E94541FAC0190918802992339F02091D7
:1046E000140130E02417350758F068C020911501F7
:1046F0008AE0289F900111242417350718F05EC026
:104700009F3F19F09F5F9093880210928C02109245
:104710008D0280918E02181624F40E9497218093B6
:104720008E0280918E0287FF05C00E94972181959D
:1047300080938E0280918F02181624F40E94972194
:1047400080938F0280918F0287FF05C00E9497217E
:10475000819580938F0230918E023323E1F0209176
:104760008F022223C1F045EB3403C00111249923A9
:1047700019F090938E0203C081E080938E0235EB96
:104780002303C0011124992319F090938F0203C0D1
:1047900081E080938F020E94BD22809186029091D9
:1047A0008702909383028093820286E0FE01319615
:1047B000AAE8B2E001900D928A95E1F726960FB62D
:1047C000F894DEBF0FBECDBFDF91CF910895EAE828
:1047D000F2E086E0DF011D928A95E9F710928802E7
:1047E0001092890208958091B0020895CF93DF93CB
:1047F00000D01F92CDB7DEB790910903943019F520
:1048000089837B836A8382E08093E9008FEF9091B4
:10481000E800815095FD06C095ED9A95F1F70000EE
:104820008111F5CF8091E80085FF0DC040E050E098
:1048300063E070E0CE0101960E9452268091E8006C
:104840008E778093E8000F900F900F90DF91CF91BB
:104850000895CF93DF93EC010E943526823011F04A
:10486000843031F4BE0184E0DF91CF910C94F623C3
:10487000DF91CF910895BC0183E00C94F623CF9390
:10488000DF93EC010E943526823011F08430F9F478
:1048900082E08093E9008FEF9091E800815095FDD0
:1048A00006C095ED9A95F1F700008111F5CF809142
:1048B000E80085FF0CC040E050E066E070E0CE010B
:1048C0000E9452268091E8008E778093E800DF9165
:1048D000CF910895CF93DF93EC010E94352682306B
:1048E00011F08430D9F580912401882339F080912A
:1048F000030387FF03C060E282E002C068E081E05A
:104900008093E9008FEF9091E800815095FD06C0FB
:1049100095ED9A95F1F700008111F5CF8091E800AF
:1049200085FF1CC080912401811105C040E050E04A
:1049300068E070E003C070E040E050E0CE010E940B
:1049400052268091E8008E778093E80080E2FE0195
:10495000A0E9B2E001900D928A95E1F7DF91CF9145
:10496000089580910803811109C00E94E3270E94E5
:1049700040288091E20084608093E20008951092C4
:1049800008030895089508950C94031F42E061EC14
:1049900081E00E945C2742E261EC82E00C945C279B
:1049A00080910B03833009F460C030F4813071F0E2
:1049B000823009F499C008958A3009F485C08B309B
:1049C00009F46BC0893009F0A7C020C080910A03A8
:1049D000813A09F0A1C08091E800877F8093E800C8
:1049E00080910E0390910F03892B21F460E280E9FE
:1049F00092E003C060E080E090E070E00E949D26BD
:104A00008091E8008B778093E800089580910A03F5
:104A1000813209F081C080910E0390910F030297BB
:104A200008F07AC08091E800877F8093E800809149
:104A3000E80082FD05C0809109038111F8CF6CC0A8
:104A40002091F3008091F20090E0922B029729F4DC
:104A50008091F1008B7F813021F48091F10080936F
:104A6000B0028091E8008B7753C080910A03813AAD
:104A700009F052C080910E0390910F03892B09F029
:104A80004BC08091E800877F8093E8008091E80028
:104A900080FFFCCF8091240136C080910A038132CF
:104AA000D9F580910E0390910F03892BA9F5809180
:104AB000E800877F8093E8000E94912780910C0393
:104AC000809324010C94931680910A03813221F57E
:104AD0008091E800877F8093E8000E949127809171
:104AE0000D038093B102089580910A03813AA1F4E5
:104AF0008091E800877F8093E8008091E80080FF44
:104B0000FCCF8091B1028093F1008091E8008E7714
:104B10008093E8000C949127089584B7877F84BF21
:104B20000FB6F894A895809160008861809360002A
:104B3000109260000FBE90E080E80FB6F89480936A
:104B40006100909361000FBE0E94C9110E94E3278B
:104B50000E9440288091E20084608093E200789473
:104B60000E94D52A0E94D1118AE191E00E9454113D
:104B700080910903853069F40E94BD1E809107036E
:104B80008823B1F30E94A41E882391F30E943C263F
:104B9000EFCF0E94DD11ECCF0C94CE25292F3327C7
:104BA00023303105C9F060F42130310581F0223025
:104BB000310509F04AC08BE390E02FE834E049C0AA
:104BC0002132310511F12232310579F13EC082E105
:104BD00090E02AEC34E03DC099278130910561F0E6
:104BE00040F08230910559F0039779F5E7E6F4E05B
:104BF00008C0EBE8F4E005C0E9E7F4E002C0EDE648
:104C0000F4E0849190E09F0124C06115710541F0AA
:104C100061307105D1F489E090E02AEB34E019C0ED
:104C200089E090E021EA34E014C06115710541F09B
:104C30006130710551F48CEB90E02CED34E009C04B
:104C400080E490E028E935E004C080E090E020E0D6
:104C500030E0FA0131832083089580910903843084
:104C600011F081E0089582E008958091B2028111EF
:104C700002C00C942D26089580E189BD82E189BD92
:104C800009B400FEFDCF8091D8008F7D8093D800BD
:104C90008091E00082608093E0008091E00081FDDF
:104CA000FCCF0895CF92DF92EF92FF920F931F9364
:104CB000CF93DF93EC018B017A010E94B027811121
:104CC00033C0E114F10439F0F70180819181081BB0
:104CD000190BC80FD91FC12CD12C0115110519F1C1
:104CE0008091E80085FD16C08091E8008E77809362
:104CF000E800E114F10449F0F70180819181C80EC8
:104D0000D91ED182C08285E00FC00E94B0278823BF
:104D100021F30AC089918093F10001501109FFEF3E
:104D2000CF1ADF0ADACF80E0DF91CF911F910F9188
:104D3000FF90EF90DF90CF90089520911003309175
:104D400011032617370748F06115710539F42091D2
:104D5000E8002E772093E80001C0B901FC0120E0B3
:104D60006115710579F1809109038823F1F185308E
:104D7000F1F18091E80083FD3CC08091E80082FD64
:104D80002EC08091E80080FFEBCF2091F30080914E
:104D9000F20090E0922B6115710551F08830910579
:104DA00038F421912093F100615071090196F3CFFD
:104DB00021E0089709F020E08091E8008E77809349
:104DC000E800CECF2111CFCF0AC0809109038823FC
:104DD00061F0853061F08091E80083FD0AC0809128
:104DE000E80082FFF2CF80E0089582E0089583E03A
:104DF000089581E008952091100330911103261742
:104E0000370748F06115710539F42091E8002E77D5
:104E10002093E80001C0B901FC0120E06115710593
:104E200091F180910903882309F440C0853009F489
:104E30003FC08091E80083FD3DC08091E80082FD85
:104E40002FC08091E80080FFE9CF2091F30080918E
:104E5000F20090E0922B6115710559F088309105B0
:104E600040F424912093F10031966150710901962C
:104E7000F2CF21E0089709F020E08091E8008E77DA
:104E80008093E800CBCF2111CCCF0AC080910903D9
:104E9000882361F0853061F08091E80083FD0AC0CD
:104EA0008091E80082FFF2CF80E0089582E00895CB
:104EB00083E0089581E00895982F973068F59093E6
:104EC000E900981739F07091EC002091ED005091B5
:104ED000F00003C0242F762F50E021FD02C09F5F19
:104EE000ECCF3091EB003E7F3093EB003091ED0042
:104EF0003D7F3093ED003091EB0031603093EB005B
:104F00007093EC002093ED005093F0002091EE00A0
:104F100027FDE5CF80E008958F708093E90081E060
:104F2000089580910A0387FF11C08091E80082FDF7
:104F300005C0809109038111F8CF11C08091E8006C
:104F40008B770BC080910903882349F08091E8009A
:104F500080FFF8CF8091E8008E778093E800089575
:104F60002091E4003091E50095E64091EC00842F1B
:104F7000817040FF23C08091E80080FD1DC08091BA
:104F80000903882399F0853099F08091EB0085FD25
:104F900011C04091E4005091E5002417350729F332
:104FA000915011F09A01E1CF84E0089582E00895D4
:104FB00083E0089581E0089580E008954091E8003D
:104FC00042FFDDCF08950E9451280E945928E0EE4B
:104FD000F0E0808181608083E8EDF0E080818F7770
:104FE000808319BCA7EDB0E08C918E7F8C9380817B
:104FF0008F7E80831092080308950F931F93CF93A1
:10500000DF930E9451280E945928C8EDD0E0888182
:105010008F77888388818068888388818F7D888363
:1050200019BC109209031092050310920703109205
:10503000060300EE10E0F80180818B7F8083888179
:105040008160888342E060E080E00E945C27E1EEBE
:10505000F0E080818E7F8083E2EEF0E080818160ED
:105060008083808188608083F80180818E7F808347
:10507000888180618883DF91CF911F910F9108957E
:10508000E8EDF0E080818F7E8083E7EDF0E08081C5
:105090008160808384E082BF81E0809308030C9468
:1050A000FD27E8EDF0E080818E7F80831092E200A2
:1050B00008951092DA001092E10008951F920F9265
:1050C0000FB60F9211242F933F934F935F936F93DB
:1050D0007F938F939F93AF93BF93EF93FF938091B1
:1050E000E10082FF0BC08091E20082FF07C0809147
:1050F000E1008B7F8093E1000E94D42A8091DA0046
:1051000080FF1FC08091D80080FF1BC08091DA0013
:105110008E7F8093DA008091D90080FF0DC080E1FE
:1051200089BD82E189BD09B400FEFDCF81E0809395
:1051300009030E94B12405C019BC109209030E9402
:10514000BF248091E10080FF19C08091E20080FFC0
:1051500015C08091E2008E7F8093E2008091E20092
:1051600080618093E2008091D80080628093D800B3
:1051700019BC85E0809309030E94C3248091E1005B
:1051800084FF30C08091E20084FF2CC080E189BDA3
:1051900082E189BD09B400FEFDCF8091D8008F7DEA
:1051A0008093D8008091E1008F7E8093E100809110
:1051B000E2008F7E8093E2008091E2008160809324
:1051C000E20080910503882311F084E007C08091FC
:1051D000E30087FD02C081E001C083E08093090302
:1051E0000E94C4248091E10083FF29C08091E200E5
:1051F00083FF25C08091E100877F8093E10082E0FA
:1052000080930903109205038091E1008E7F8093C3
:10521000E1008091E2008E7F8093E2008091E200C5
:1052200080618093E20042E060E080E00E945C27C1
:105230008091F00088608093F0000E94C224FF916A
:10524000EF91BF91AF919F918F917F916F915F91FE
:105250004F913F912F910F900FBE0F901F90189577
:105260001F920F920FB60F9211242F933F934F93DB
:105270005F936F937F938F939F93AF93BF93CF93DE
:10528000DF93EF93FF93C091E900CF708091EC0022
:10529000D82FD17080FDD0E81092E9008091F00005
:1052A000877F8093F00078940E9474291092E9001F
:1052B0008091F00088608093F000CD2BCF70C09378
:1052C000E900FF91EF91DF91CF91BF91AF919F9155
:1052D0008F917F916F915F914F913F912F910F909F
:1052E0000FBE0F901F9018951F93CF93DF93CDB7EC
:1052F000DEB7AA970FB6F894DEBF0FBECDBFEAE0C7
:10530000F3E08091F100819323E0E231F207C9F7E5
:105310000E94D0248091E80083FF2EC180910A036F
:1053200090910B03492F50E04A30510508F024C1F9
:10533000FA01E857FF4F0C944A2B803821F082384D
:1053400009F01AC108C080910603909107039923C0
:1053500089F082600FC080910E038F70873008F053
:105360000BC18093E9008091EB0085FB882780F9D1
:105370001092E9009091E800977F9093E800809365
:10538000F1001092F100D1C0282F2D7F09F0F4C058
:10539000882319F0823061F0EFC080910C038130D6
:1053A00009F0EAC0933009F080E0809307032EC033
:1053B00080910C0381112AC080910E038F702FEF12
:1053C000280F263008F0D8C08093E9002091EB0028
:1053D00020FF1CC0933021F48091EB00806214C048
:1053E0009091EB0090619093EB0021E030E0A901F7
:1053F00002C0440F551F8A95E2F74093EA001092CD
:10540000EA008091EB0088608093EB001092E90045
:105410008091E800877F8093E8000E949127ACC0CC
:105420008111AAC010910C031F778091E30080784E
:10543000812B8093E3008091E800877F8093E800D0
:105440000E9491278091E80080FFFCCF8091E300CB
:1054500080688093E300111102C082E001C083E004
:105460008093090389C08058823008F085C08091FC
:105470000C0390910D038C3D53E0950779F583E083
:105480008A838AE289834FB7F894DE01139620E07D
:105490003EE051E2E32FF0E050935700E49120FF0B
:1054A00003C0E295EF703F5FEF708E2F90E0EA301F
:1054B00010F0C79601C0C0968D939D932F5F243145
:1054C00049F74FBF8091E800877F8093E8006AE248
:1054D00070E0CE0101960E949D2616C060910E03D9
:1054E00070910F03AE014F5F5F4F0E94CC25BC014E
:1054F000892B09F441C09091E800977F9093E800D0
:1055000089819A810E94FB268091E8008B778093A5
:10551000E80032C0803881F58091E800877F809371
:10552000E800809105038093F1008091E8008E7778
:1055300072CF811121C080910C0390910D039927A6
:105540000297D4F48091E800877F8093E8008091EF
:105550000C03809305030E9491278091050381111C
:1055600006C08091E30087FD02C081E001C084E0B5
:10557000809309030E94C6248091E80083FF0AC03B
:105580008091E800877F8093E8008091EB00806243
:105590008093EB00AA960FB6F894DEBF0FBECDBF86
:1055A000DF91CF911F9108950895CF9380910903C2
:1055B0008823A1F0C091E900CF709091EC00892F71
:1055C000817090FD80E8C82B1092E9008091E8007E
:1055D00083FD0E947429CF70C093E900CF91089594
:1055E000DB018F939F930E945F2BBF91AF91A29F8E
:1055F000800D911DA39F900DB29F900D11240895D1
:10560000AA1BBB1B51E107C0AA1FBB1FA617B707E8
:1056100010F0A61BB70B881F991F5A95A9F7809504
:105620009095BC01CD01089597FB072E16F40094C8
:1056300007D077FD09D00E94002B07FC05D03EF46F
:10564000909581959F4F0895709561957F4F08952E
:10565000A1E21A2EAA1BBB1BFD010DC0AA1FBB1F76
:10566000EE1FFF1FA217B307E407F50720F0A21BE8
:10567000B30BE40BF50B661F771F881F991F1A9455
:1056800069F760957095809590959B01AC01BD017F
:10569000CF010895EE0FFF1F0590F491E02D0994BE
:1056A000A29FB001B39FC001A39F700D811D112463
:1056B000911DB29F700D811D1124911D08950E94AE
:1056C000502BA59F900DB49F900DA49F800D911D10
:1056D00011240895FC014150504030F0019006160D
:1056E000D1F73197CF010895882799270895F9991F
:1056F000FECF92BD81BDF89A992780B50895A6E1A5
:10570000B0E044E050E00C94B12BA8E1B0E042E0FE
:1057100050E00C94B12B262FF999FECF92BD81BD9C
:10572000F89A019700B4021639F01FBA20BD0FB6DF
:10573000F894FA9AF99A0FBE08950396272F0E94BB
:105740008C2B0E948B2B252F0E948C2B242F0C94AA
:105750008C2B0196272F0E948C2B0C948B2BDC0119
:10576000CB01FC01F999FECF06C0F2BDE1BDF89A6C
:10577000319600B40D9241505040B8F70895F89416
:02578000FFCF59
:10578200010210101001191A1B1C1D1E1F202122BC
:105792005B022808641E140A321EF3236A243F2483
:1057A2003B24292401E200E900EA00B500B600B773
:1057B20000CD008301CC008A0192019401210223D1
:1057C2000224022502260227022A02B300B4006F35
:1057D200007000818283F0F1C667663794313035FC
:1057E20034979633F490919293950001020202024B
:1057F2000606060909090909090F0F0F0F0F0F15F0
:10580200151518191919191919191919192324E231
:1058120000E900EA00B500B600B700CD008301CC74
:10582200008A019201940121022302240225022608
:105832000227022A02B300B4006F00700081828343
:00000001FF
