:100000000C9408070C944F070C944F070C944F075F
:100010000C944F070C944F070C944F070C944F0708
:100020000C944F070C944F070C94FA2C0C94CC2D85
:100030000C94CD230C944F070C944F070C944F074E
:100040000C944F070C944F070C944F070C944F07D8
:100050000C944F070C941A240C944F070C944F07E0
:100060000C944F070C944F070C944F070C944F07B8
:100070000C944F070C944F070C944F070C944F07A8
:100080000C944F070C944F070C944F070C944F0798
:100090000C944F070C944F070C944F070C944F0788
:1000A0000C944F070C944F070C944F072212251203
:1000B0002D12321237123C12411246124B125012BC
:1000C00055125A125C125F126212651268126B129C
:1000D0006D12721215191519471947199419B21989
:1000E000D31AD31ABD19521A631A631AC31AD31A30
:1000F000D31ACC1A731B731B851B851B7C1B851B9A
:10010000851B851B731B731B811B851B851B811B1B
:10011000392E602E582F602E582FAC2ECF2E582FF0
:10012000262F352F29001E001F002000210022004D
:10013000230024002500260027002D002E002A0081
:100140002A002B00000014001A00080015001700F8
:100150001C0018000C00120013002F0030003100AA
:100160000151000004001600070009000A000B00FE
:100170000D000E000F003300340028000000E100E5
:10018000E1001D001B000600190005001100100011
:10019000360037003800E500E500E500E000E30048
:1001A0000000E200025100002C000000035100009A
:1001B000E6005000510052004F0000000000000017
:1001C000000000000000000000000000000000002F
:1001D000000000000000000000000000F600F70032
:1001E000F80000000000FB00FA00F900FC0000002D
:1001F00000000000000001000000FD00FE00FF0004
:1002000000000000F200F100F000F3000000000028
:1002100000000000E100E10000000000000000001C
:10022000000000000000000000000000E500E50004
:10023000E500E000E3000000E20000000000F40040
:100240000000F5000000E6005000510052004F0091
:1002500035003A003B003C003D003E003F004000BE
:10026000410042004300440045004C004C000000A7
:100270000000460047004800000000004A004E0011
:100280004B004D000000000000004900000000008D
:10029000000000000000000000005000510052006B
:1002A0004F000000000000000000E100E1006400D9
:1002B000000000000000000000000000000000003E
:1002C0000000E500E500E500E000E3000000E200DA
:1002D000010000006500000000000000E600500082
:1002E000510052004F00A800AA00A900BE00BD00A6
:1002F000000053005F0060006100000056006700CE
:100300001C501C50AE000000AC00AB000000000010
:10031000000000005C005D005E000000570000006F
:1003200000000000000000000000000000000000CD
:10033000000059005A005B00550000005800000002
:10034000E100E10000000000000000001450000087
:100350006200850063005400E500E500E500E00070
:10036000E3000000E20000000000000000000100C7
:100370000000E6005000510052004F001050CD5CCC
:10038000CE5CCF5CD05CD15CD25CD35CD45C000032
:100390000000000000000000000000000000005C01
:1003A000000000000000000000000000000000004D
:1003B000000000000000000000000000C25CC45CFF
:1003C000C35CC65CC55CC85CC75CCA5CC95CCC5C11
:1003D000CB5C0000000000000000BF5CBD5CBE5CA8
:1003E00000000000095C145C000000000000000038
:1003F00000000000000000000000000000000000FD
:1004000000000000000000000000000000000000EC
:1004100000000100010001000100010001000100D5
:1004200001000100010001000100010001000100C4
:1004300001000000010001000100010001000100B5
:1004400001000100010001000100010001000100A4
:100450000000010001000100010001000100010095
:100460000100010001000100010000000100010085
:100470000100010001000100010001000100010074
:100480000100010001000100010001000100000065
:100490000100010000000100000001000000010057
:1004A0000100010001000100010001000100010044
:1004B0000100010001000100010001000100010034
:1004C0000100010001000100000001000100010025
:1004D0000100010001000100010001000100010014
:1004E0000100010001000000010001000100010005
:1004F00001000100010001000100010001000100F4
:1005000000000100010001000100010001000100E4
:1005100001000100010001000100010001000100D3
:1005200001000100000001000100000001000000C6
:1005300001000000010001000100010001000100B4
:1005400001000100010001000100010001000100A3
:100550000100010001000100010001000100000094
:100560000100010001000100010001000100010083
:100570000100010001000100010001000000010074
:100580000100010001000100010001000100010063
:100590000100010001000000010001000100010054
:1005A0000100010001000100010001000100010043
:1005B0000100010001000100010000000100010034
:1005C0000000010000000100000001000100010026
:1005D0000100010001000100010001000100010013
:1005E0000100010001000100010001000100010003
:1005F00001000100000001000100010001000100F4
:1006000001000100010001000100010001000100E2
:1006100001000000010001000100010001000100D3
:1006200001000100010001000100010000000100C3
:1006300001000100010001000100010001000100B2
:1006400001000100010001000100010001000100A2
:100650000000010001000000010000000100000096
:100660000100010001000100010001000100010082
:100670000100010001000100010001000100010072
:100680000100010001000100010000000100010063
:100690000100010001000100010001000100010052
:1006A0000100010001000100000001000100010043
:1006B0000100010001000100010001000100010032
:1006C0000100000001000100010001000100010023
:1006D0000100010001000100010001000100010012
:1006E0000100010001000000010001000000010004
:1006F00000000100000001000100010001000100F4
:1007000001000100010001000100010001000100E1
:1007100001000100010001000100010001000100D1
:1007200000000100010001000100010001000100C2
:1007300001000100010001000100010001000000B2
:1007400001000100010001000100010001000100A1
:100750000100010001000100000001000100010092
:100760000100010001000100010001000100010081
:100770000100010001000100010001000000010072
:100780000100000001000000010000000100010064
:100790000100010001000100010001000100010051
:1007A0000100010001000100010001000100010041
:1007B0000100010001000000010001000100010032
:1007C0000100010001000100010001000100010021
:1007D0000100010000000100010001000100010012
:1007E0000100010001000100010001000100000002
:1007F00001000100010001000100010001000100F1
:1008000001000100010001000100010001000100E0
:1008100001000000010001000000010000000100D3
:1008200000000100010001000100010000000000C3
:1008300000000000000000000000000000000000B8
:1008400000000000000000000000000000000000A8
:100850000000000000000000000000000000000098
:100860000000000000000000000000000000000088
:100870000000000000000000000000000000000078
:100880000000000000000000000000000000000068
:100890000000000000000000000000000000000058
:1008A0000000000000000000000000000000000048
:1008B000000000000D5100000000000000000000DA
:1008C0000000000000000000000000000000000028
:1008D0000000000000000000000000000000000018
:1008E0000000000000000000000000000000000008
:1008F00000000000000000000000000000000000F8
:1009000000000000000000000000000000000000E7
:1009100000001E5000000000000000000000000069
:1009200000000000000000000000000000000000C7
:1009300000000000000000000000000000000000B7
:1009400000000000000000000000010000000000A6
:100950000000000000000000000000000000000097
:100960000000000000000000000000000000000087
:100970000000000000000000000000000000000077
:100980000000000000000000000000000000000067
:100990000000000000000000000000000000000057
:1009A0000000000000000000010000000000000046
:1009B0000000000000000000000000000000000037
:1009C0000000000000000000000000000000000027
:1009D0000000000000000000000000000000000017
:1009E0000F51000000000000000000000000105047
:1009F0001C501C501C501C501C501C501C501C5097
:100A00001C501C501C501C501C501C501C500000F2
:100A10001C501C501C501C501C501C501C501C5076
:100A20001C501C501C501C501C501C5000001C50D2
:100A30001C501C501C501C501C501C501C501C5056
:100A40001C501C501C5000001C501C501C501C50B2
:100A50001C501C501C501C501C501C501C501C5036
:100A60001C501C501C501C501C5000001C501C5092
:100A700000001C500000010000001C501C501C50C5
:100A80001C501C5032190A00047F3F1F643214644A
:100A90003214783C1E1E140A052223252628292AF2
:100AA0002C2D2F3032333536383A3B3D3E404243D1
:100AB0004547494A4C4E5051535557595A5C5E6010
:100AC00062646668696B6D6F71737577797B7D7F22
:100AD00081838587898A8C8E90929496989A9C9E21
:100AE0009FA1A3A5A7A8AAACAEAFB1B3B4B6B8B93D
:100AF000BBBCBEBFC1C2C3C5C6C7C9CACBCCCDCEA5
:100B0000D0D1D2D2D3D4D5D6D7D7D8D9D9DADADB87
:100B1000DBDBDCDCDCDCDCDDDDDDDDDCDCDCDCDC13
:100B2000DBDBDBDADAD9D9D8D7D7D6D5D4D3D2D252
:100B3000D1D0CECDCCCBCAC9C7C6C5C3C2C1BFBE3A
:100B4000BCBBB9B8B6B4B3B1AFAEACAAA8A7A5A3A5
:100B5000A19F9E9C9A98969492908E8C8A89878564
:100B600083817F7D7B79777573716F6D6B69686643
:100B70006462605E5C5A5957555351504E4C4A4915
:100B800047454342403E3D3B3A3836353332302FBD
:100B90002D2C2A292826252322FFAA7F5540000133
:100BA000010101010101010102020202020202022D
:100BB00002030303030303030304040404040404FF
:100BC00005050505050606060606070707070708C3
:100BD000080808090909090A0A0A0B0B0B0C0C0C76
:100BE0000D0D0D0E0E0E0F0F0F1010111111121210
:100BF00013131414151516161717181819191A1A8D
:100C00001B1B1C1D1D1E1E1F2020212222232424ED
:100C1000252626272829292A2B2C2D2D2E2F303129
:100C20003232333435363738393A3B3C3D3E3F403B
:100C30004142434445464748494A4C4D4E4F505126
:100C40005354555658595A5B5D5E5F6162646566E0
:100C500068696B6C6D6F7072737577787A7B7D7E67
:100C60008082838587888A8C8E8F91939596989AB7
:100C70009C9EA0A2A3A5A7A9ABADAFB1B3B5B7BACF
:100C8000BCBEC0C2C4C6C9CBCDCFD1D4D6D8DBDDA3
:100C9000DFE2E4E7E9EBEEF0F3F5F8FAFDFF040339
:100CA000300000000A0344005A0036003000000003
:100CB00010034B0042004400460061006E007300C8
:100CC00000000403090409023B00020100A0FA0924
:100CD000040000010301010009211101000122406B
:100CE000000705810308000A090401000103000050
:100CF0000009211101000122BC0007058203200028
:100D00000A12011001000000085A4460220100018B
:100D100002030105010902A10185020901A10005E3
:100D2000091901290515002501950575018102950F
:100D300001750381010501093009311581257F9570
:100D4000027508810609381581257F95017508818E
:100D500006050C0A38021581257F95017508810664
:100D6000C0C005010980A101850319012AB700153A
:100D70000126B700950175108100C0050C0901A17D
:100D800001850419012AA002150126A0029501750A
:100D9000108100C005010906A1018505050719E0BC
:100DA00029E715002501950875018102050719003D
:100DB00029EF1500250195F075018102050819013B
:100DC0002905950575019102950175039101C005ED
:100DD000010906A101050719E029E715002501957C
:100DE000087501810295017508810105071900291F
:100DF000FF150026FF0095067508810005081901FA
:100E00002905950575019102950175039101C000B1
:100E100011241FBECFEFDAE0DEBFCDBF04B603FE64
:100E200027C080916A0390916B03A0916C03B091ED
:100E30006D038730904BA740B04BD1F410926A03FA
:100E400010926B0310926C0310926D0314BE84B762
:100E5000877F84BF0FB6F894A89580916000886161
:100E600080936000109260000FBEE0E0F8E3099507
:100E700011E0A0E0B1E0E8EDF1E602C005900D92CE
:100E8000AC3CB107D9F723E0ACECB1E001C01D9256
:100E9000AA36B207E1F70E94292A0C94EA300C9492
:100EA0000000229A2A9A08950E94430A0C9451073E
:100EB00081FF02C02A9801C02A9A0C94BB0781E0E6
:100EC000089581E008950C94610708950C946507D6
:100ED0001F93CF93DF9300D000D01F92CDB7DEB722
:100EE00049835A836B833091400289819A81311101
:100EF00014C0662359F0222349F00E94AC20182F19
:100F0000682F89819A810E94552003C00E94802009
:100F1000182F69817A81812F04C00E94AC206981D9
:100F20007A810F900F900F900F900F90DF91CF91DB
:100F30001F910C942608FC01262F4081518162816B
:100F4000738184810C946807CF93DF93EC0160E098
:100F50000E949B07BE01DF91CF910C9466070E940F
:100F6000DE21811102C00E9491220E94ED130C9497
:100F700054070C94410A089581E008950C94BC072D
:100F8000CF93C82F0E9458078C2F0E94BE07CF9185
:100F9000089508950E94611B0E94C9072FEF84E302
:100FA0009CE0215080409040E1F700C000000C948C
:100FB00040240F931F93CF93DF93EC0161E00E94D5
:100FC0009B078C01BE010E9463078823A9F1BE0123
:100FD000C8010E945613882379F1BE01C8010E94FE
:100FE0009C14882349F1BE01C8010E94DD148823A6
:100FF00019F1BE01C8010E9408168823E9F0BE015C
:10100000C8010E940B128823B9F08A81882369F0F5
:1010100001158CE5180731F00E3D1C4531F40E9496
:1010200091220AC00E94CA0707C0CE01DF91CF916A
:101030001F910F910C945F0780E0DF91CF911F917A
:101040000F91089580E090E0089508952BE4829F29
:10105000C0011124FC012FE0729FE00DF11D11244D
:10106000E60FF11DEE0FFF1FEC5DFE4F8591949191
:101070000895880F991FFC01EC57F54F85919491C5
:101080000895CF93DF930E9426080E945909EC012E
:101090008115904508F041C0C11580E4D80708F0DB
:1010A000D1C0C83ED10510F5C03ED10508F0FDC045
:1010B000C83AD10578F4C53AD10508F0A2C0C130CC
:1010C000D10509F4F2C008F4EEC0C430D10508F02F
:1010D000ECC0E9C0CF3BD10508F49BC0C03CD105B2
:1010E00008F4E1C0CE01805C91099EC0C11590E278
:1010F000D90758F4C11521E0D20708F0D6C0C03F87
:10110000D10508F4D0C0D065D0C0C11580E3D807A0
:1011100008F08EC0CE019F7087C0C11595E5D90734
:1011200008F043C0C11524E5D20708F0A2C0C115DC
:1011300082E5D80708F5C11591E5D90708F085C003
:10114000CE0174E0969587957A95E1F783709C2F90
:10115000937021E030E002C0220F331F9A95E2F72E
:101160003C68382BCF70C695C69580E2C89FE001D9
:101170001124C22BD32B99C09E01237033278C2FAF
:1011800086958695C115D34508F064C0C1E0D0E0CE
:1011900002C0CC0FDD1F2A95E2F720E2829FC0013A
:1011A0001124C82BD92BDC6880C0C11529E5D207D2
:1011B000A0F4C11588E5D80708F060C0C11596E510
:1011C000D90708F070C08C2F0E94ED098F71C82FCD
:1011D000D0E0DC2FCC27D06268C0C1152AE5D20749
:1011E00008F451C0CE0190568115904208F05BC0C2
:1011F0008D2F8F710E94ED09DD27D0628F71D82B62
:1012000054C0C55AD0E0C75ADE4FC881D0E0D06480
:101210004CC0C85AD0E0CC0FDD1FC55DDE4F099031
:10122000D881C02DD46441C00E943908EC013DC072
:10123000CE019927D3FF03C0EC01D86C36C0EC0176
:10124000D06C33C0DF70D06A30C0DC2FCC27C16FC8
:10125000D06A2BC0C1E0D0E002C0CC0FDD1F2A95C0
:10126000E2F720E2829FC0011124C82BD92BDA6853
:101270001CC0DC2FCC27C46FD06A17C0DC2FCC2752
:10128000C06FD06A12C08C2F8F700E94ED0994E05D
:10129000D695C7959A95E1F7CF70D0E0DC2FCC2793
:1012A000D069C82B02C0C0E0D0E0CE01DF91CF9161
:1012B00008958238910569F1B0F48133910509F4FC
:1012C0006DC048F48932910509F463C08A329105F2
:1012D00009F469C008958533910509F455C089332F
:1012E0009105B9F00895833E910569F138F4803E87
:1012F0009105B1F0823E910509F10895863E910570
:10130000A9F1873E9105B9F1843E910509F064C0C9
:1013100023C020915B0320FD4FC021FD4DC00895E7
:1013200080915B0380FD44C080915C0380FF44C0DA
:1013300080915B0384FD42C083EE4DC080915B03CE
:1013400082FF38C0F5CF80915B0382FD33C080916E
:101350005C0380FD31C0ECCF80915C0381FF32C023
:1013600080915B0384FD2AC087EE35C080915B03CA
:1013700083FF26C0F5CF80915B0383FD21C0809160
:101380005C0381FD1FC0ECCF80915B0385FD1CC019
:101390001DC080915B0385FD19C016C080915B0361
:1013A00086FD16C017C080915B0386FD13C010C078
:1013B00089E311C082EE0FC080EE0DC080E00BC04B
:1013C00086EE09C084EE07C089E205C085E303C04C
:1013D0008AE201C081E390E0089590915B0392FF5F
:1013E0000DC0282F2871283019F4877F846006C02B
:1013F000282F2471243011F48B7F886093FF0DC057
:10140000282F2871283119F4877E846106C0282F7F
:101410002471243111F48B7E886120915C0320FFBC
:101420000DC0382F3871383019F4877F816006C0BD
:10143000382F3171313011F48E7F886021FF0DC05B
:10144000282F2871283119F4877E816106C0282F42
:101450002171213111F48E7E886194FD877E08957B
:10146000E82FF0E0EE0FFF1FE95EFC4F80819181D5
:101470000895089580EA8A95F1F7089508950C94E7
:101480003E0A0C943F0A0C943E0ACF93DF93ABE6DE
:10149000B1E040E751E061E070E08D91E82FE29526
:1014A000EF70F0E021A18F70EB0102C0CC0FDD1FC7
:1014B0008A95E2F7CE019C2F9095922391A392A159
:1014C000892B82A34A175B0741F7ACE5B1E04BE6F5
:1014D00051E061E070E08D91E82FE295EF70F0E06F
:1014E00021A18F70EB0102C0CC0FDD1F8A95E2F7BE
:1014F000CE019C2F9095922391A392A1892B82A338
:101500004A175B0741F7EDE0F3E0A7E1B3E087E1BD
:1015100093E0119211921D921D928E179F07C9F7A9
:1015200085E00E94240BDF91CF910C94AF076F925E
:101530007F928F929F92AF92BF92CF92DF92EF9263
:10154000FF920F931F93CF93DF938BE6C82E81E01A
:10155000D82E0DE013E097E1A92E93E0B92E712C5F
:1015600088248394912CF60181916F01C82FC29534
:10157000CF70D0E099A18F70740101C0EE0C8A95F4
:10158000EAF7892F8E2989A38AA16E2C609486217F
:101590008AA30E943A0AECE5F1E040E050E020E046
:1015A00030E06191A62FA295AF70B0E090968C913B
:1015B00090E06F7002C0959587956A95E2F780FD7F
:1015C00008C0C401042E02C0880F991F0A94E2F7D4
:1015D00002C080E090E0282B392B4F5F5F4F4F30E7
:1015E0005105F9F689A1682269A28AA1E82AEAA22E
:1015F000F801808191812817390721F031832083F8
:1016000081E001C080E0782A0E5F1F4FA016B1066E
:1016100009F0A9CF272D45E067E173E08DE093E065
:101620000E94250B0E94B907872DDF91CF911F9152
:101630000F91FF90EF90DF90CF90BF90AF909F9071
:101640008F907F906F9008950895FF920F931F934E
:10165000CF93DF93F82E092F162FD72FC42F2223D5
:1016600049F081E08093CE010E94FF239093CD0149
:101670008093CC018091CE018823D9F08091CC0158
:101680009091CD010E940B24069798F0EF2DF02F3A
:10169000A12FBD2F80E090E04C2F50E084179507DC
:1016A00034F4219131912D933D930196F7CF10920F
:1016B000CE01DF91CF911F910F91FF900895EF928E
:1016C000FF920F931F93CF93DF93F62E472FE82FB0
:1016D000F0E0711106C0E256F44F6491762F862F28
:1016E00072C0272F30E0E256F44FE4910E2F10E045
:1016F00056E0659FC0011124CFEFD0E0BE010E94EB
:10170000A82F5BEA5603C001579F900D11248F0D3F
:10171000911D8F0D911D982F990F890F7E01E21A4F
:10172000F30AE09ED001E19EB00DF09EB00D1124B1
:10173000489FA0011124452F55277E01E41AF50A80
:10174000E09EA001E19E500DF09E500D11247E01FF
:10175000E81AF108E29EC001E39E900DF29E900D02
:101760001124892F9927C81BD90BC09FC001C19F85
:10177000900DD09F900D11246230710591F048F4C6
:1017800061157105E1F061307105A9F48B2F752F9A
:1017900019C06430710561F038F06630710579F078
:1017A0000AC0892F7B2F0EC08E2F7B2FE52F0AC0FA
:1017B0008E2F792F02C0852F7E2FEB2F03C08B2F0A
:1017C0007E2FE92F6E2FDF91CF911F910F91FF9008
:1017D000EF9008950895CF93DF93762FE901682F56
:1017E000842F0E945F0B798368838A83DF91CF9176
:1017F000089580912103282F269530E02115310589
:1018000019F48170826005C02B32310524F081709B
:10181000846580932103089588E090E00C948330E0
:10182000CF92DF92EF92FF926B017C010E94F90B45
:10183000B701A60188E090E0FF90EF90DF90CF9095
:101840000C94A130E1E2F3E083E0808311828FEF1A
:1018500082838383148260817181828193810C945D
:10186000100C8091210380FF02C08695089580E0CE
:10187000089580912503833018F48F5F80932503AA
:10188000609121037091220380912303909124039E
:101890000C94100C80912503882319F081508093BB
:1018A000250360912103709122038091230390917D
:1018B00024030C94100C70E00C94FD13609107014C
:1018C0008091210380FF0AC08091060123E0829F5E
:1018D000C00111248A5D9C4F0C945B0C809108011F
:1018E00090910901891780F7E82FF0E09F01220FFE
:1018F000331FE20FF31FEA5DFC4F11821082128248
:101900008F5FF0CF9091210390FF16C09091080156
:1019100020910901921770F4E92FF0E0DF01AA0F7E
:10192000BB1FEA0FFB1FEA5DFC4F8183608342838C
:101930009F5FF0CF0C945E0C0895CF93DF9300D09F
:101940001F92CDB7DEB79091210390FF0AC09E0190
:101950002F5F3F4F0E94EB0B4B8169818A810E9470
:10196000820C0F900F900F90DF91CF910895CF933D
:10197000DF93EC01EC81F0E0E756F54F4491E1E2B2
:10198000F3E0628181810E949D0C8C818F5F8C834A
:10199000DF91CF910895CF93DF93EC01E1E2F3E083
:1019A000438162818C810E949D0C8C818F5F8C832E
:1019B000DF91CF9108950F931F93CF93DF9300D0C2
:1019C0001F92CDB7DEB78C018091CF0181110AC083
:1019D0009E012F5F3F4F4FEF6FEF0E94EB0B8A810D
:1019E0008093CF01F8018481813051F028F082305A
:1019F00061F44091CF010AC08091CF0140E007C05F
:101A00006091CF0140E080E003C040E080E060E012
:101A10000E94820CF801848190E0019663E070E0FE
:101A20000E94BC2F84830F900F900F90DF91CF9175
:101A30001F910F910895AF92BF92CF92DF92EF92D4
:101A4000FF920F931F93CF93DF9300D01F92CDB7D8
:101A5000DEB7182FF62E042FE22E9091210390FF6F
:101A60006DC0E92FE695AE2FB0E0A059BE4F8C9126
:101A7000809329029E7F923061F49E012F5F3F4F39
:101A8000812F0E94EB0B4B8169818A810E94820C1D
:101A900043C0823019F4009124033EC0863019F40B
:101AA0001091220339C08930D9F38931A9F5E95160
:101AB0008E2F8170D82EE695F0E0E756F44FA59072
:101AC000B490C12CBB2460910A01C61618F52C2DC8
:101AD00030E0A29EC001A39E900DB29E900D1124F5
:101AE00070E00E94A82F812FD11002C0860F01C084
:101AF000861B90910801290F311DA901440F551F24
:101B0000240F351F2A5D3C4F402F6F2D0E94EB0B99
:101B1000C394D9CF0E945E0C10932203F09223034A
:101B200000932403EE2051F0609121037091220371
:101B300080912303909124030E94100C0F900F902A
:101B40000F90DF91CF911F910F91FF90EF90DF9059
:101B5000CF90BF90AF900895E1E2F3E09181282FFC
:101B60004381628188E0890F0C941B0D81E00C9405
:101B7000AC0DE1E2F3E09181282F4381628188EF8F
:101B8000890F0C941B0D81E00C94B90DE1E2F3E098
:101B9000628128E0620F08F46FEF282F4381818172
:101BA0000C941B0D81E00C94C60DE1E2F3E0628120
:101BB00028E0621B08F460E0282F438181810C94A7
:101BC0001B0D81E00C94D50DE1E2F3E0438128E0A8
:101BD000420F08F44FEF282F628181810C941B0D76
:101BE00081E00C94E40DE1E2F3E0438128E0421B44
:101BF00008F440E0282F628181810C941B0D81E064
:101C00000C94F30D20E00C941B0DFF920F931F9387
:101C1000CF93DF93EC01F12C0FEF10E060910A01FC
:101C2000F616F0F4809108012F2D30E0280F311DB9
:101C3000C901880F991F280F391F2A5D3C4F70E09A
:101C4000C8010E94BC2F962F8C8140912403609183
:101C50002303F99E800D11240E94EB0BF394DECF39
:101C60000E945E0C9A818C8190FF02C08F5F01C040
:101C700081508C83DF91CF911F910F91FF90089538
:101C8000BF92CF92DF92EF92FF920F931F93CF9369
:101C9000DF93FC01828180FF02C00FEF01C001E0F1
:101CA00010E080910A01181708F040C080910801E7
:101CB000C12ED12CE601C80FD11DCE01880F991F6E
:101CC000C80FD91FCA5DDC4F198218821A8234E00E
:101CD000E32EF12CB12C8091D1018B0D813114F0C8
:101CE0008F7005C087FF03C090910A01890F082EED
:101CF000000C990BC816D90691F4809124038E9D8F
:101D0000A0018F9D500D11245595479555954795E8
:101D10009E0160912303809122030E94EB0BB00E81
:101D2000F1E0EF1AF108B9F61F5FBBCF0E945E0C1D
:101D30008091D101013031F4811102C080910A01FA
:101D4000815007C090E0019660910A0170E00E9406
:101D5000BC2F8093D101DF91CF911F910F91FF9004
:101D6000EF90DF90CF90BF900895CF9380910801BE
:101D700090910901891770F4E82FF0E09F01220F7C
:101D8000331FE20FF31FEA5DFC4F118210821282B3
:101D90008F5FF0CFC0E060910A01C617C0F5EC2F4D
:101DA000F0E070E0CF010E94BC2F20910801820F6B
:101DB0002091D001022E000C330B90E0E217F307C4
:101DC000CCF020910501022E000C330B2E173F079B
:101DD0008CF09C01220F331F820F931F9C012A5D00
:101DE0003C4F4091240360912303809122030E9481
:101DF000EB0B0BC0FC01EE0FFF1F8E0F9F1FFC01B2
:101E0000EA5DFC4F118210821282CF5FC4CF0E9424
:101E10005E0C209104018091D001820F8093D0014B
:101E200090910501920F9093050119165CF4082E0C
:101E3000000C990B40910A0150E041505109841760
:101E400095071CF0219520930401CF9108950F93DD
:101E50001F93CF93DF938C01FC01848195810196C0
:101E60008170992795838483C0E0D5E580910A012C
:101E7000C81700F5809108012C2F30E0280F311D84
:101E8000C901880F991F280F391F2A5D3C4F4C2F1D
:101E90004695F80184819581840F911D8170409150
:101EA0002403609123038D9F802D11240E94EB0B4E
:101EB000CF5FDCCFDF91CF911F910F910C945E0C1F
:101EC0000F931F93CF93DF93EC0100E010E080911C
:101ED0000A01282F30E00217130724F5909108011A
:101EE0009801290F311DA901440F551F240F351FDB
:101EF0002A5D3C4F869590E04C81081719071CF429
:101F0000442331F002C0411103C04091240301C0B9
:101F100040E060912303809122030E94EB0B0F5F4E
:101F20001F4FD5CF0E945E0C8C8190E0019681708E
:101F300099278C83DF91CF911F910F9108958F92F4
:101F40009F92AF92BF92CF92DF92EF92FF920F9348
:101F50001F93CF93DF93FC01B280948081E0848350
:101F600000E015E05BE4A52E88248394EE24EA9437
:101F7000F12C7BE4C72ED12C80910A01081708F0C0
:101F80008FC0C02FD0E01C9FF0011D9FF00D1124C9
:101F9000EE52FE4F911003C01382128267C023815C
:101FA000222389F1215023833481332319F09A2D80
:101FB000921B01C0922F809124031C9FF0011D9F52
:101FC000F00D1124EE52FE4F899FC0011124B6017D
:101FD0000E94A82F6283211104C0332311F01482C0
:101FE000A38222E02B1508F441C01C9FF0011D9F25
:101FF000F00D1124EE52FE4F8091220380838091D8
:102000002303818333C00E945E308230914074F597
:1020100082E08B1530F40E945E30B7010E94BC2F25
:1020200002C0809122031C9FF0011D9FF00D11241E
:10203000EE52FE4F808322E02B1558F40E945E3052
:10204000209123032695622F70E00E94BC2F820FFF
:1020500002C0809123031C9FF0011D9FF00D1124ED
:10206000EE52FE4F81831282A38284828091080106
:102070009E01280F311DC901880F991F280F391F94
:102080002A5D3C4F1C9FF0011D9FF00D1124EE5264
:10209000FE4F4281618180810E94EB0B0F5F6CCF0C
:1020A000DF91CF911F910F91FF90EF90DF90CF9034
:1020B000BF90AF909F908F900C945E0CE1E2F3E0A4
:1020C00080818E7F808360817181828193810E9473
:1020D000100C10922A022FEF80E792E021508040EE
:1020E0009040E1F700C000000C945E0CE1E2F3E0E8
:1020F00080818E7F808310922A022FEF80E792E00A
:10210000215080409040E1F700C000000C945E0C2C
:1021100060912103669570E04BE050E08BE091E028
:102120000E946E30892B19F481E080932A020E946C
:10213000FF2390932302809322020895909121031C
:1021400090FF35C09170811102C0926006C08B3241
:1021500010F0946502C0880F982B9093210366239A
:1021600051F060912103709122038091230390919B
:1021700024030E94100C60912103669570E04BE0EF
:1021800050E08BE091E00E946E30892B19F01092A4
:102190002A0202C00E94881081E0809325024091AB
:1021A000240360912303809122030C94020E08956E
:1021B000682F90912103969581E0890F8B3208F06A
:1021C00081E00C949E1081E00C94D810682F9091BF
:1021D000210396958FEF890F09F48AE20C949E10E3
:1021E00081E00C94E61061E00C949E10E1E2F3E0D3
:1021F00080818160808386950C94F3108091210307
:1022000080FD0C945E100C94F61060E00C949E100F
:102210008091280281112EC00E94DE21811104C00C
:102220000E9491220E94220C0E940C0C60932103B8
:102230007093220380932303909324036E7F61F4B1
:102240000E94220C0E940C0C6093210370932203C5
:1022500080932303909324030E94F90B10922A0287
:102260008091210380FF03C086950E94051181E0C3
:10227000809328020895E1E2F3E080818160808309
:1022800086950C94051110922A0208950F931F93BE
:10229000CF93DF9380912A02882309F49CC0809118
:1022A0002902E0912103E695E81BE09324028230A5
:1022B00049F4F0E0EB56F54FE491CE2FD0E007EB78
:1022C0001CE059C0863049F4F0E0EE56F54FE49139
:1022D000CE2FD0E00BEC1CE04EC0893051F4E695D7
:1022E000F0E0E157F54FE491CE2FD0E005E01EE09D
:1022F00042C08F3051F4E695F0E0E457F54FE49199
:10230000CE2FD0E000E41EE036C0853149F4F0E085
:10231000E757F54FE491CE2FD0E005EB1EE02BC040
:102320008831D9F0833239F4E7E8FAE0C591D491E5
:102330000BED1CE020C08432A9F08532C1F48E2F51
:1023400063E00E949C2FE92FF0E0EC57F54FE491F9
:10235000CE2FD0E00FE91FE00EC0C8EED3E007E2B9
:102360001FE009C0C4EFD1E000E61FE004C0C0EDEB
:10237000D7E00AEE1BE080912502882389F01092B5
:1023800025020E94FF239E0120953095820F931F06
:102390009093230280932202109227021092260229
:1023A00080912202909123020E940B248C179D079A
:1023B00090F0E0912202F0912302CE0FDF1FD09324
:1023C0002302C093220282E292E0F801DF91CF91D2
:1023D0001F910F910994DF91CF911F910F91089553
:1023E000882311F0FA0101C0FB010994CF93DF9318
:1023F000C82FD62F0E94310C8C1740F00E94310C50
:102400008D1720F4DF91CF910C94E3108C2FDF9186
:10241000CF910C94F3100F931F93CF93FB01C281C4
:10242000CC2309F463C08C010E942D218272F80133
:10243000E25CFC45E431F10508F059C0EA5AFF4F6F
:102440000C94F22F0E94FE1006C040EF50E163EEA4
:1024500070E10E94F011C0E04AC043EE50E160EF2D
:1024600070E1F7CF43EC5DE066EB7DE0F2CF46EB49
:102470005DE063EC7DE0EDCF41EE5DE062ED7DE09F
:10248000E8CF42ED5DE061EE7DE0E3CF4FEF5DE050
:1024900060EF7DE0DECF40EF5DE06FEF7DE0D9CF14
:1024A0004AE45CE069E37CE0D4CF49E35CE06AE4C1
:1024B0007CE0CFCF81E017C065E082E010C068E02B
:1024C00086E00DC06EE089E00AC064E18FE007C0DD
:1024D00067E185E104C088E106C062E289E10E940B
:1024E000F611B9CF83E20E94F310B5CFC1E08C2F73
:1024F000CF911F910F9108950E94DE21811102C09A
:102500000E9491220E94192280935603282F26951B
:102510002695269530E02630310524F087708862B4
:10252000809356038091560380FF04C0869586955C
:10253000869501C080E00C948B1320915603822F66
:10254000869586958695482F50E04530510554F480
:102550008F5F982F990F990F990F822F8770892B72
:1025600080935603809156038160809356030E94A6
:102570001D22809156038695869586950C948B1323
:1025800080915603982F969596959695A1F0915E19
:10259000990F990F990F8770892B80935603887F25
:1025A00091E009F490E08091560390FB80F98093CC
:1025B00056030E941D228091560386958695869526
:1025C0000C948B138091560380FD13C0816080931F
:1025D0005603813019F489E08093560380915603A5
:1025E0000E941D22809156038695869586950C94AF
:1025F0008B1308958091560380FF08C08E7F8093CF
:1026000056030E941D2280E00C948B130895809144
:10261000560380FD0C94FA120C94E212909156032A
:10262000892F8695869586958F5F8F7197708630F6
:1026300038F4880F880F880F892B8093560302C0C7
:102640009093560380915603887F91E009F490E0BF
:102650008091560390FB80F9809356030E941D22BF
:10266000809156038695869586950C948B138630BB
:1026700008F085E0909156039770282F220F220FC3
:10268000220F922B90935603987F21E009F420E0CB
:102690009091560320FB90F9909356030C948B1362
:1026A0000E943713809156030C941D229C01FB015C
:1026B0008281882349F12D3BFCE53F07C9F040F4B6
:1026C0002B3BECE53E0769F02C3B3C4561F008955F
:1026D0002F3B9CE5390791F070F0203C3C4589F098
:1026E000089585E001C080E00E94501380E00895C5
:1026F0000E94C012FBCF0E949D12F8CF0E940713C8
:10270000F5CF0E940E13F2CF81E00895269A2E98FD
:1027100008952E980895CF92DF92EF92FF92CF9373
:10272000C82F863050F4811109C0809180008F7DC0
:10273000809380000E94891306C0C5E080918000CC
:102740008062809380002C2F30E0AFEFBFEF0E94BB
:10275000F82F25E030E040E050E00E94D02FC90182
:102760002C3764E1360728F469E070E00E94A82F56
:1027700029C0DA01C9018A50974DAF4FBF4F662774
:10278000782F892F9A2F25EF38E241E050E00E9400
:10279000D02F69017A01CA01B9010E948C2F9B01D7
:1027A000AC01C701B6010E948C2FBB27A92F982F1F
:1027B000872F009721E0A207B10511F0BC0102C0EC
:1027C0006FEF7FEF70938B0060938A00CF91FF9043
:1027D000EF90DF90CF90089508950E94861382E2D3
:1027E0008093800089E1809381008FEF9FEF909329
:1027F0008700809386000C947C126A9A2EB12B7FFE
:102800003EB134604FB7F894FC01CB01880F991F9B
:10281000680F791F6E0F7F1FE617F70789F0819108
:1028200098E03EB9000000C087FF2EB9880F000075
:1028300000C000C000C02EB900C09A9591F7ECCF3F
:102840004FBF8FE594E00197F1F700C000000895B5
:102850000F931F93CF93DF93C62FD42F122FFC011A
:1028600082818823C9F060932D020E94FF239093F8
:102870002C0280932B0280E28C0F883008F057C026
:10288000C77081E001C0880FCA95EAF7DF91CF9148
:102890001F910F910C94D11880912D02681330C0B4
:1028A00080912B0290912C020E940B24883C910570
:1028B00038F500E20D0FCD17B9F080E28C0F8830AB
:1028C00040F4C77081E001C0880FCA95EAF70E9402
:1028D000D818083028F581E09D2F977001C0880F27
:1028E0009A95EAF70E94D118812F0E94BE180830ED
:1028F000F0F4D77081E001C0880FDA95EAF70AC0DA
:1029000080E28C0F883098F4C77081E001C0880F96
:10291000CA95EAF7DF91CF911F910F910C94D818C7
:10292000812FDF91CF911F910F910C94BE18DF91F1
:10293000CF911F910F9108959C01CB01233F4CE54E
:102940003407F9F078F4283DFCE53F07B9F0293D5C
:102950004CE5340711F1273D3C4531F526E241EEC7
:1029600061EE1EC0253FFCE53F0799F070F0263F61
:102970003C45D1F427E245EE66EE12C027E245EE73
:102980000EC026E241EE60EE0BC027E245EE64EE9B
:1029900007C026E241EE62EE03C028E241E065EEA8
:1029A0000E94281480E00895FC018281882319F098
:1029B00010922D02089581E00895CF93DF93EC01EA
:1029C000FB018281882309F41FC1C230FCE5DF07C7
:1029D00008F41BC1C6319CE5D90738F09E012A5F77
:1029E0003C452930310508F010C10E94FB2190932D
:1029F0005C0380935B03C031ECE5DE0709F4C3C0E0
:102A000008F041C0C8308CE5D80709F49AC0F0F44A
:102A1000C430ECE5DE0709F487C068F4C2308CE509
:102A2000D80709F477C0C330DC4509F0E3C08091D2
:102A30005B03826076C0C630ECE5DE0709F46EC049
:102A400008F07BC080915B0388606BC0CC308CE564
:102A5000D80709F485C068F4CA30ECE5DE0709F44C
:102A600074C008F079C00E94611B80915B0380688C
:102A700058C0CE308CE5D80709F476C008F07FC086
:102A800080915B038BC0CB3FECE5DE0709F44FC0C0
:102A900018F5C3318CE5D80709F47DC078F4C1314D
:102AA000ECE5DE0709F473C0C231DC4509F0A2C0D1
:102AB0000E94611B80915B038F7733C0C5318CE529
:102AC000D80709F472C008F486C0CA3FDC4509F093
:102AD00091C080915C033EC0CF3FFCE5DF0709F465
:102AE0005FC058F4CD3F9CE5D90709F444C008F411
:102AF0003FC080915C0382602DC0C130FDE5DF07DF
:102B000009F475C008F45DC0C230DD4509F072C03B
:102B100080E06EC080915B03816003C080915B03A5
:102B2000806180935B0366C080915B0311C08091DC
:102B30005C03826080935C035DC080915B03806274
:102B4000F0CF80915B038064ECCF80915B03886061
:102B50008460E7CF8160EECF80915B038E7FE1CF11
:102B600080915B038D7FDDCF80915B03877FD9CF21
:102B700080915C0318C080915C038D7FDBCF8091D6
:102B80005B038F7ECECF80915B038F7DCACF809118
:102B90005B038F7BC6CF80915B03877F8B7FC1CF29
:102BA00080915C038D7F8E7FC5CF80915B0382FB1C
:102BB000222720F991E0922790FB82F990FB83F97C
:102BC000B0CF80915C03982F909591708E7F892B68
:102BD00090FB81F9AFCF0E94611B80915B0387FB63
:102BE000222720F991E0922790FB87F99ACF81E084
:102BF0000E94932280915B0390915C030E940C22BF
:102C00000E94611B80E001C081E0DF91CF910895B7
:102C1000CF93DF9386319C4541F5EB010E942D2136
:102C2000982F8A812091160130911701882379F01D
:102C30009A7A81E009F480E080932E02911102C01B
:102C400069E201C065E3C9010E942E230AC0809198
:102C50002E02811102C069E201C065E3C9010E9430
:102C600039230E947B2180E001C081E0DF91CF9178
:102C7000089590933402809333020895E0913302D3
:102C8000F0913402309721F00190F081E02D099409
:102C900080E00895E0913302F0913402309799F08A
:102CA00020912A01222359F020915B0327FF07C0BE
:102CB000DC012C9111962C93119725E02C93028026
:102CC000F381E02D09940895E0913302F0913402EC
:102CD000309739F022E0DC012C930480F581E02D5F
:102CE0000994089520913102309132022817390752
:102CF00071F09093320280933102E0913302F091AF
:102D00003402309721F00680F781E02D0994089570
:102D100020912F02309130022817390771F09093DB
:102D2000300280932F02E0913302F0913402309709
:102D300021F00084F185E02D0994089585B780681D
:102D400085BF85B7806885BF089508950C94A51642
:102D50000C94A6160C94A5160C94A5160E949E160B
:102D60000E94AA160C94A81681E008950C94B4163B
:102D70000E94F6230E94450A0E94B0240E947C1201
:102D80000E9408110C94AC167F928F929F92AF9282
:102D9000BF92CF92DF92EF92FF920F931F93CF9348
:102DA000DF93CDB7DEB72A970FB6F894DEBF0FBE1C
:102DB000CDBF0E94970A0E94B616811111C08FEFF5
:102DC00089838A831B820E94FF238160782F9D83E1
:102DD0008C8349815A816B818D810E9478174FC005
:102DE00046E3A42E42E0B42E00E010E0702E802FC7
:102DF0000E94300A6C01F501819091905F01882654
:102E000099268114910431F40F5F1F4F053011058D
:102E100069F7D5CF8091D80281FD0E94390A80E000
:102E2000EE24E394F12C94012E213F21232B09F170
:102E30008E837F82CE20DF2081E0CD2809F480E0E0
:102E400088870E94FF238160782F9A8789874E8127
:102E50005F8168858A850E947817000F111FF8012D
:102E6000EA5CFD4F80819181E826F926F182E082BB
:102E700006C08F5FEE0CFF1C8F30A9F6C5CF0E94F5
:102E800046110E94EC130E9464270E943E16909106
:102E900035028917C9F00E943E16809335022A96A2
:102EA0000FB6F894DEBF0FBECDBFDF91CF911F915B
:102EB0000F91FF90EF90DF90CF90BF90AF909F90D9
:102EC0008F907F900C94C0072A960FB6F894DEBFBF
:102ED0000FBECDBFDF91CF911F910F91FF90EF906B
:102EE000DF90CF90BF90AF909F908F907F9008958C
:102EF000CF93DF93CDB7DEB72B970FB6F894DEBF35
:102F00000FBECDBF4F83588769877A878B87DE01D5
:102F1000119686E0FD0111928A95E9F785E0FE01A0
:102F2000379601900D928A95E1F749815A816B811C
:102F30007C818D819E810E941A1E2B960FB6F8947B
:102F4000DEBF0FBECDBFDF91CF910895FC01808120
:102F500091810E94EE200895CF93882309F4A4C0A4
:102F6000C82F8238C1F40E943E1681FD9DC069E3DE
:102F700080911601909117010E942E230E947B21BF
:102F80002FEF81EE94E0215080409040E1F700C0A7
:102F9000000069E319C0833801F50E943E1680FDE8
:102FA00083C063E580911601909117010E942E2342
:102FB0000E947B212FEF81EE94E0215080409040D1
:102FC000E1F700C0000063E58091160190911701C0
:102FD0000E943923CF910C947B218438C1F40E9444
:102FE0003E1682FD61C067E4809116019091170141
:102FF0000E942E230E947B212FEF81EE94E021502E
:1030000080409040E1F700C0000067E4DDCF8CEF26
:103010008C0F813AD0F46C2F80911601909117019A
:103020000E94AE22882349F06C2F80911601909166
:1030300017010E9439230E947B216C2F8091160179
:10304000909117010E942E23C5CF80E28C0F88300B
:1030500048F4C77081E001C0880FCA95EAF70E9462
:103060003021B8CFEBE5EC0FE33040F4F0E0E7536C
:10307000FE4F808190E0CF910C947216E8E5EC0F42
:10308000E73150F4F0E0EE0FFF1FE556FE4F808170
:103090009181CF910C948816C03F30F08C2F0E9404
:1030A0006C26CF910C945927CF910895882309F469
:1030B00064C0823879F40E943E1681FF5EC069E3E5
:1030C00080911601909117010E942E230E947B216E
:1030D00069E310C08338B1F40E943E1680FF4DC0F2
:1030E00063E580911601909117010E942E230E94A2
:1030F0007B2163E580911601909117010E9439238D
:103100000C947B21843879F40E943E1682FF35C0EE
:1031100067E480911601909117010E942E230E946E
:103120007B2167E4E7CF9CEF980F913A10F4682F6A
:10313000E1CF90E2980F983050F4877091E001C091
:10314000990F8A95EAF7892F0E943621D9CF9BE5FE
:10315000980F933020F480E090E00C94721698E57C
:10316000980F973120F480E090E00C948816803F0F
:1031700020F00E94D4260C9459270895CF93C82F8D
:103180000E94AC17C93349F42FEF87EE93E021502A
:1031900080409040E1F700C000008C2FCF910C944C
:1031A0005618882321F00E9430210C947B21089529
:1031B000882321F00E9436210C947B210895CF9220
:1031C000DF92EF92FF920F931F93CF93DF937C01D7
:1031D000062FC72FFC01158112951F70D281D111C6
:1031E0000E944D210E942621882399F0DD2389F039
:1031F0008C2F807F803421F080E2800F883048F06F
:1032000082E00E94C5210E94262191E0D82ED92675
:1032100001C0D12CCC2EC2948FE0C8228C2D90E01E
:10322000FC01E659FF4F0C94F22F8C2F807FCF705A
:10323000882311F0C295C07FDD2399F0CC2309F4D7
:103240008DC180E2800F883010F0011104C08C2FF6
:103250000E94302103C08C2F0E9440210E947B21BC
:103260007DC1802F0E945618CC2309F49CC180E2B6
:10327000800F883010F0011104C08C2F0E9436217D
:1032800003C08C2F0E9446210E947B218CC18C2F71
:10329000807FCF70803211F0C295C07F002319F07B
:1032A0000130C9F022C0DD2371F0112341F011304B
:1032B00031F40E9460218C2B0E94682174C10E940D
:1032C00060218C2B1DC0112319F0113009F46BC142
:1032D0000E94712125C0DD2321F0163008F063C162
:1032E0000EC0153008F05FC11BC0DD2361F0112353
:1032F00031F0F701858180FF31C18F7085838C2F7C
:103300000E94D11850C1112359F0093309F037C177
:10331000FFEF27EE83E0F15020408040E1F72DC120
:103320008C2F0E94D8183FC18C2F8695869583706C
:1033300019F0813061F037C1DD2321F0802F9C2FFF
:10334000937002C080E090E00E94721634C1DD23C9
:1033500021F0802F9C2F937002C080E090E00E94AB
:10336000881629C1802FDD2319F00E946C2602C027
:103370000E94D4260E9459271EC18C2F837009F009
:1033800045C0D11114C1402F429546954770440F56
:10339000440F602F6F70862F90E0A0E0B0E0042E05
:1033A00004C0880F991FAA1FBB1F0A94D2F704FFFD
:1033B00010C00FE010E020E030E004C0000F111F4B
:1033C000221F331F4A95D2F700951095209530950E
:1033D00003C000E010E09801C695C695C370BC011B
:1033E000CD01602B712B822B932BC23049F058F406
:1033F000C13019F00E946B1FDAC00E94591FD7C05C
:103400000E947D1FD4C00E94571FD1C0DD2319F038
:103410008C2F817001C08695882309F4C8C0402F85
:10342000429546954770440F440F602F6F70862F6A
:1034300090E0A0E0B0E0042E04C0880F991FAA1FFE
:10344000BB1F0A94D2F704FF10C00FE010E020E089
:1034500030E004C0000F111F221F331F4A95D2F71E
:10346000009510952095309503C000E010E098017C
:10347000C695C695C370BC01CD01602B712B822B04
:10348000932BC23049F058F4C13019F00E9430201B
:103490008EC00E941E208BC00E94422088C00E94C5
:1034A000911F85C0CF70DD2339F08C2F0E94B71F8C
:1034B000802F0E94D1187BC0802F0E94D8188C2F9B
:1034C0000E94D81F74C0023F01F128F4003F41F070
:1034D000013FA1F03FC0033FF9F0043F39F13AC08A
:1034E000DD2341F0153008F05EC08C2F8F710E94F3
:1034F000FD1F59C0163008F056C0F7CFDD2339F054
:103500008C2F8F710E94B71F4EC0DD23C9F38C2F03
:103510008F710E94D81F47C0DD2329F08C2F8F7137
:103520000E94A21F40C00E949D1F3DC0DD2349F0A4
:10353000CF718C2F0E94B71F63E08C2F0E94B021A7
:1035400032C081E00E94C521123068F182E00E9401
:10355000C52129C0DD2331F0112391F2802F0E9473
:10356000AC1721C0112399F2093349F49FEFE7EE1C
:10357000F3E09150E040F040E1F700C00000802F00
:103580000E94561810C04C2F4F70602FC7010E9428
:1035900022080E94C81E0FC04C2F4F70602FC70119
:1035A0000E94250808C088EF8C0D843020F40E940A
:1035B0003E160E94C007DD20C9F00E94222180FD36
:1035C00015C0F70112820E941C210E94B71FC7017B
:1035D0000E94171B0E941C21DF91CF911F910F9118
:1035E000FF90EF90DF90CF900C94D81FDF91CF9198
:1035F0001F910F91FF90EF90DF90CF9008950F9360
:103600001F93CF93DF93EC01688179818A810E94B7
:10361000F9208C010E9454200E94451FB801CE0160
:103620000E94DF18DF91CF911F910F910895CF93E2
:10363000DF93EC01988189812B813C81232B31F030
:103640008F3F31F481E09F3F19F403C081E001C056
:1036500080E080FD19C0CE010E94D90781110CC005
:103660000E942621882381F08A81882369F082E0E4
:10367000DF91CF910C94C521CE010E94FF1ACE019B
:10368000DF91CF910C94A407DF91CF9108950E9410
:103690004D210E945D210E947B210E9483280E946F
:1036A000592780E090E00E94721680E090E00C9430
:1036B000881680911601909117010E9444230C9462
:1036C000471B0E943D210C94591BE92FE295EF7096
:1036D0004E2F50E0FA013297EE30F105B0F4E65883
:1036E000FF4F0C94F22F803F91F018F4883E68F45D
:1036F0000EC0843F51F40BC0883E48F0813F29F44E
:1037000006C093FB882780F9089580E0089581E042
:1037100008950E94EE200E94651B0895CF93DF93C9
:1037200000D000D01F92CDB7DEB70F900F900F9052
:103730000F900F90DF91CF910895CF93DF9300D03A
:1037400000D000D0CDB7DEB726960FB6F894DEBF16
:103750000FBECDBFDF91CF9108951F93CF93DF931D
:10376000C091410216E080914202C81799F0D0E062
:103770001C9FF0011D9FF00D1124ED5BFD4F40815A
:10378000518162817381848195810E949D1B219664
:10379000C770E9CFDF91CF911F91089540917302D7
:1037A0005091740260917502709176028091770257
:1037B000909178020C949D1B0F931F93CF93DF93EE
:1037C0008091780282958F7009F05DC080917502BA
:1037D000882309F458C080914102109142026091FF
:1037E000730270917402C0917602D091770291E0D9
:1037F0006F3F09F090E0292F06E0811709F443C0DC
:10380000209721F07F3F21F030E003C031E001C07C
:10381000322F90E030FD34C0089FF001099FF00D79
:103820001124DF01AD5BBD4F11963C911197371309
:1038300027C03C91361324C012963C911297311147
:103840001FC013964D915C9114974C1B5D0B483C27
:103850005105B0F4809178028F7080618093780276
:10386000E85BFD4F80818F708061808383E792E009
:103870000E94171BDF91CF911F910F910C94AD1BEC
:1038800001968770BACFDF91CF911F910F91089564
:103890009F92AF92BF92CF92DF92EF92FF920F93DF
:1038A0001F93CF93DF93CDB7DEB761970FB6F89430
:1038B000DEBF0FBECDBF8C0185E0F801DE011D9695
:1038C00001900D928A95E1F7F80140815181E280E3
:1038D0009091730260917402209176023091770288
:1038E0002115310531F06F3F31F481E09F3F19F42C
:1038F00003C081E001C080E0F82FF1709F2E80FDB1
:1039000046C1F801A380B48083E7C82E82E0D82E98
:10391000F0907502F501E21BF30BFF2009F4DFC004
:1039200080917802E83CF10508F09BC0282F207FA9
:1039300009F052C0561313C0491311C0FE2CE110F8
:103940000EC08F708061809378020E94CE1BC601EA
:103950000E94171B80917802F801858358C1AB281B
:1039600031F05F3F31F481E04F3F19F403C081E053
:1039700001C080E080FD03C081E08E2502C080E0B0
:1039800090E0F82FF170FF2E80FF1CC08091410263
:103990002091420236E0821709F417C190E0389F67
:1039A000F001399FF00D1124ED5BFD4F618156133D
:1039B00006C06081461303C06281E61203C001960F
:1039C0008770E9CFFE2CEE2009F421C180917802A6
:1039D0008160809378025AC0561306C0491304C010
:1039E000E11002C0F8019FC04D875E878D859E85DE
:1039F0000E94891B882379F1EE2069F120917802D9
:103A0000822F82958F7090E0029774F080917302FC
:103A10009091740298878F831986BB86AA862C871B
:103A2000CE0107960E94171B86E0F801A3E7B2E0DB
:103A300001900D928A95E1F70E94DC1B0E94CE1B3B
:103A40000DC0561729F14D875E878D859E850E9492
:103A5000891B81112CC0C8010E94171BFF24F394FD
:103A6000D6C0282F207F69F77A2DB98AA88A6E2DB3
:103A700089890E948E1B83E792E00E94171B86E0D3
:103A8000F60111928A95E9F70E94CE1BF12CBFC076
:103A90004913D9CFE110D7CFF8018583C8010E941F
:103AA000171B86E0F60111928A95E9F7B0C0EE2067
:103AB00091F220917802822F82958F7090E0029788
:103AC0000CF4B2CF80917302909174029A8389832F
:103AD0001B82BD82AC822E83CE010196A3CFE83C2F
:103AE000F10508F047C0FE2CEE2009F4B4CF5613C0
:103AF00030C049132EC02091780220FD21C0822FB2
:103B000082958F70482F50E041155105C9F0F8019A
:103B100025834F30510541F08F5F982F9295907F0C
:103B2000822F8F70892B8583C8010E94171B86E026
:103B3000F801A3E7B2E001900D928A95E1F742C047
:103B400086E0F801A3E7B2E001900D928A95E1F7D3
:103B50005EC04D875E878D859E850E94891B811181
:103B600063CF80917802816080937802C8010E94BF
:103B7000171B4DC07A2DB98AA88A6E2D89890E949B
:103B80008E1B86E0F60111928A95E9F71BC0EE20A4
:103B900009F461CF4D875E878D859E850E94891BC4
:103BA000F82E882309F457CF86E0F801A3E7B2E0A6
:103BB00001900D928A95E1F783E792E00E94A617A3
:103BC0000E94DC1B0E94CE1B22C04D875E878D8524
:103BD0009E850E94EE20292F22952F70223028F4F6
:103BE0009F7039F0811105C00BC0243028F49F70FC
:103BF00049F4805E883020F0C8010E94171B9F2C7A
:103C0000F92C05C0F8019581907F99F7F9CF8F2D98
:103C100061960FB6F894DEBF0FBECDBFDF91CF9196
:103C20001F910F91FF90EF90DF90CF90BF90AF90DA
:103C30009F9008951F93CF93DF93CDB7DEB72C9756
:103C40000FB6F894DEBF0FBECDBF4F83588769878C
:103C50007A878B879C87CE0107960E94481C882311
:103C6000D1F09F8188852A853B85232B31F08F3FBA
:103C700031F481E09F3F19F403C081E001C080E08E
:103C800080FD47C04F81588569857A858B859C85E5
:103C90000E949D1B3EC086E0FE013796DE01119614
:103CA00001900D928A95E1F7FF81E8856A857B8511
:103CB0006115710531F0EF3F31F481E0FF3F19F4F8
:103CC00003C081E001C080E080FD23C0209142025A
:103CD00030E0C9010196877099274091410250E078
:103CE00084179507F1F1F983EA837D836C8396E06D
:103CF000929FD001939FB00D1124AD5BBD4FFE018B
:103D0000319601900D929A95E1F7809342020E94BC
:103D1000AD1B16E08091410290914202891771F12A
:103D2000189FC00111248D5B9D4F0E94481C882361
:103D300029F1E09141021E9FF0011124ED5BFD4F3E
:103D40004081518162817381848195810E949D1B94
:103D50008091410290E001968770992780934102FB
:103D6000D9CF0E94611B1092420210924102E3E7F8
:103D7000F2E086E0DF011D928A95E9F72C960FB6F6
:103D8000F894DEBF0FBECDBFDF91CF911F91089594
:103D9000EF92FF920F931F93CF93DF938C01892BA8
:103DA00009F46CC0F12CEE24E394E8012196F801AB
:103DB0008491843740F4843008F051C0813081F020
:103DC000823019F15BC0853709F444C0A8F19CE743
:103DD000980F903708F052C08F770E94561841C054
:103DE0000E5F1F4FFE01849190E2980F983050F4BF
:103DF0008770FE2D01C0FF0F8A95EAF78F2F0E9472
:103E0000502114C00E94AC172DC00E5F1F4FFE0141
:103E1000849190E2980F983060F48770FE2D01C075
:103E2000FF0F8A95EAF78F2F0E9456210E947B216F
:103E300019C00E94561816C00E5F1F4FFE01C49194
:103E4000CC2381F08FE99FE00197F1F700C00000DB
:103E5000C150F6CF0E5F1F4FFE01F49003C00E94C9
:103E6000AC178E018F2D882309F49FCFEFE9FFE077
:103E70003197F1F700C000008150F5CFDF91CF916D
:103E80001F910F91FF90EF900895089508950C945D
:103E9000461F0C94471F0E94491F6093AF02709306
:103EA000B0028093B1029093B2020C94471B0C9421
:103EB0004B1F0F931F930091AF021091B0022091FE
:103EC000B1023091B202602B712B822B932B1F9188
:103ED0000F910C944B1F0F931F930091AF02109101
:103EE000B0022091B1023091B2026023712382238B
:103EF00093231F910F910C944B1F0F931F930091CD
:103F0000AF021091B0022091B1023091B20260274D
:103F10007127822793271F910F910C944B1F0C94AC
:103F2000461F0E948F1F6093AB027093AC02809378
:103F3000AD029093AE020C94471B60E070E0CB01A1
:103F40000C94911F0F931F9341E050E060E070E0EC
:103F50008A019B0104C0000F111F221F331F8A9585
:103F6000D2F7C901B8011F910F910C94911F0F93C3
:103F70001F9341E050E060E070E004C0440F551F23
:103F8000661F771F8A95D2F78091AB029091AC02A1
:103F9000A091AD02B091AE028A019B01082B192BB2
:103FA0002A2B3B2BC901B8011F910F910C94911F33
:103FB0000F931F9341E050E060E070E004C0440FB5
:103FC000551F661F771F8A95D2F7409550956095CB
:103FD00070958091AB029091AC02A091AD02B0912E
:103FE000AE028A019B01082319232A233B23C9011E
:103FF000B8011F910F910C94911F0F931F9341E0F3
:1040000050E060E070E004C0440F551F661F771F4A
:104010008A95D2F78091AB029091AC02A091AD024B
:10402000B091AE028A019B01082719272A273B2756
:10403000C901B8011F910F910C94911F0F931F9309
:104040000091AB021091AC022091AD023091AE0212
:10405000602B712B822B932B1F910F910C94911F2E
:104060000F931F930091AB021091AC022091AD020F
:104070003091AE0260237123822393231F910F910D
:104080000C94911F0F931F930091AB021091AC02FF
:104090002091AD023091AE026027712782279327CD
:1040A0001F910F910C94911F08952FE0929F800D06
:1040B0001124E82FE695E695E695877051E001C05A
:1040C000550F8A95EAF785E0E89FF0011124E7583B
:1040D000FD4F20E030E070E04081CB01022E02C0B5
:1040E000969587950A94E2F78170819584278523B8
:1040F000842781932F5F3F4F2530310569F708955D
:104100002FE0929F800D1124682F66956695669525
:10411000982F977085E0689FB001112440E050E02F
:1041200080E0FB01E40FF51FE758FD4F208130E0F0
:10413000092E02C0369527950A94E2F7217033279D
:10414000042E01C0220F0A94EAF7822B4F5F5F4FC3
:104150004530510531F70895BF92CF92DF92EF922B
:10416000FF920F931F93CF93DF938C01C090AB020C
:10417000D090AC02E090AD02F090AE028091AF0220
:104180009091B002A091B102B091B202C82AD92A8E
:10419000EA2AFB2ACFE1D0E0D701C6010C2E04C0E9
:1041A000B695A795979587950A94D2F780FD04C098
:1041B000219790F7B12C07C0BC2EB8018C2F0E941C
:1041C00041080197A9F38B2DDF91CF911F910F919A
:1041D000FF90EF90DF90CF90BF900895CF93DF9343
:1041E000EC010E94AC20BE010E944108DF91CF91FA
:1041F00008951F93CF93DF93EB0190914002992391
:1042000021F0CB010E94EE2013C0882349F0CB019E
:104210000E94AC20182F682FCE010E94552004C0A8
:10422000CB010E948020182FBE01812F0E944108DF
:10423000DF91CF911F9108958091B3028595859567
:10424000859508958091B302877008959091B30287
:10425000977081E009F480E008958091D702089575
:104260009091D702892B8093D702089580959091E1
:10427000D70289238093D70208951092D702089518
:104280009091D602892B8093D602089580959091C3
:10429000D60289238093D60208951092D6020895FB
:1042A0009091D502892B8093D502089580959091A5
:1042B000D50289238093D50208951092D5020895DE
:1042C0008091B402089508950C9463210C946421A4
:1042D0009091B402981721F08093B4020C94662157
:1042E00008958091B402882329F01092B40280E0EE
:1042F0000C9466210895E0911601F09117018091C8
:10430000D7028083E0911601F0911701908180918E
:10431000D602892B8083E0911601F09117019081DC
:104320008091D502892B80838091B402882381F00B
:10433000E0911601F09117019081892B8083809183
:104340001601909117010E94982281110E947121FB
:1043500080911601909117010C944A160C946321D8
:1043600098E0899F90011124262B2093B3020E948C
:10437000B71F8091B3028595859585950C94AE21E4
:104380001092B30280E00C94AE212091B30280958C
:1043900082238093B302982F977079F430E0482FEE
:1043A000082E000C550B2417350739F08595859597
:1043B00085950E94D81F0C94C021089580E090E05C
:1043C0000E94893021E08C3E9E4F09F020E0822F30
:1043D000089582E090E00C947B30682F82E090E0BA
:1043E0000C948F3083E090E00C947B30682F83E056
:1043F00090E00C948F30CF9384E090E00E947B306B
:10440000C82F81E290E00E947B302C2F30E0A90180
:10441000582BCA01CF910895CF93C92F682F84E0FC
:1044200090E00E948F306C2F81E290E0CF910C944D
:104430008F3086E090E00C947B30682F86E090E02F
:104440000C948F30AB01BC018FE090E00C94A13054
:10445000AB01BC0183E190E00C94A13060E070E01E
:10446000CB010C94282260E070E0CB010E94222254
:104470000C942E226CEE7EEF80E090E00E94AD3036
:1044800060E082E090E00E948F3060E083E090E0A6
:104490000E948F301092AF021092B0021092B102BF
:1044A0001092B20260E084E090E00E948F3060E001
:1044B00081E290E00E948F3060E085E090E00E9411
:1044C0008F3060E086E090E00E948F306FEF87E0F1
:1044D00090E00E948F3040E050E0BA0188E090E028
:1044E0000E94A13060E08DE090E00E948F3040E0BB
:1044F00050E0BA0188E190E00E94A13060E087E1DD
:1045000090E00E948F3040E050E0BA018CE190E0F2
:104510000E94A13060E080E290E00E948F300C9415
:1045200033220C943A22682F8EE090E00C948F3066
:10453000FC01329680912A01882331F080915B033F
:1045400087FF02C09EE101C096E080E0915028F014
:1045500021912223D9F38F5FF9CF0895662351F17A
:1045600020912A012223E9F020915B0327FF19C043
:10457000462F4695469546954E31E0F4677021E00A
:1045800030E002C0220F331F6A95E2F7FC01E40F0E
:10459000F11D828190E02823392381E0232B69F4E7
:1045A00009C0FC01329608962191621729F0E8179C
:1045B000F907D1F780E0089581E008959C01FC019E
:1045C00032969FEF80E04191461789F09F3F19F4A2
:1045D000411101C0982F8F5F8630A9F79F3F39F0B6
:1045E000F901E90FF11D97FDFA9562830895089589
:1045F0009C012A5F3F4FFC014281461301C0128299
:10460000019682179307B9F70895262F26952695C8
:1046100026952E3168F4FC01E20FF11D677021E050
:1046200030E001C0220F6A95EAF78281282B2283AD
:104630000895262F2695269526952E3170F4FC0197
:10464000E20FF11D677021E030E001C0220F6A9592
:10465000EAF72095828128232283089520912A0158
:10466000222329F020915B0327FD0C9405230C9451
:10467000DE2220912A01222329F020915B0327FDCD
:104680000C9419230C94F82220912A01FC013296F3
:10469000222331F080915B0387FF02C08EE101C0CD
:1046A00086E0DF011D928A95E9F7089508950C943C
:1046B00056230C945623CF930E9459230E94970AA5
:1046C0000E945723C0E08C2F0E94300A892B29F4C6
:1046D000CF5FC530C1F780E001C081E0CF91089580
:1046E0000C9456230C9470230E94722380916103D2
:1046F000843009F43CC01092D90220E488E190E0B3
:104700000FB6F894A895809360000FBE20936000C8
:1047100080E00E948B1380E00E94C0070E9443113A
:104720008091DA0281110AC081E08093DA028091DF
:10473000210381708093DB020E9476100E94722315
:1047400083B7817F846083BF83B7816083BF7894A0
:10475000889583B78E7F83BF0FB6F894A895809114
:104760006000886180936000109260000FBE089521
:104770000C9456230E94611B0E947C120E943E16DC
:104780000E94C0071092DA028091DB0281110E9420
:104790003B110E9488100C94B8231F920F920FB601
:1047A0000F9211248F939F93AF93BF938091D9025F
:1047B000811113C08091570390915803A091590320
:1047C000B0915A034196A11DB11D80935703909358
:1047D0005803A0935903B0935A03BF91AF919F918F
:1047E0008F910F900FBE0F901F90189582E084BD9F
:1047F00093E095BD9AEF97BD80936E0008952FB713
:10480000F8948091570390915803A0915903B09167
:104810005A032FBF08959C014FB7F8948091570316
:1048200090915803A0915903B0915A034FBF821B36
:10483000930B089578941F920F920FB60F92112444
:104840008F939F93AF93BF93809157039091580399
:10485000A0915903B0915A030196A11DB11D8093F7
:10486000570390935803A0935903B0935A03BF91F1
:10487000AF919F918F910F900FBE0F901F90189541
:1048800081E08093E00080E28093D8001092C9001C
:104890008FE19EE40197F1F700C0000087E090EB04
:1048A000DC0180936A0390936B03A0936C03B09335
:1048B0006D039CE088E10FB6F894A89580936000A2
:1048C0000FBE90936000FFCFAF92BF92CF92DF9266
:1048D000EF92FF920F931F93CF93C0E0CC24C39429
:1048E000D12CE82EF12C8C2F0E94300A5C0100E0C4
:1048F00010E0C601002E02C0880F991F0A94E2F74B
:104900008A219B21892B31F40F5F1F4F0F30110536
:1049100081F70AC0602F7C2F80E00E942608E816ED
:10492000F90691F781E004C0CF5FC530E1F680E081
:10493000CF911F910F91FF90EF90DF90CF90BF909C
:10494000AF900895CF93C82F8CE20E9464248823EF
:1049500021F08C2FCF910C94642480E0CF910895A6
:10496000CF930E94DE21811102C00E949122C5E6F0
:10497000C15049F00E94970A8FE39CE90197F1F733
:1049800000C00000F5CF89E20E94A224811120C15D
:104990008AE20E94A22481110E94912285E00E9455
:1049A000A22481110E9440240E94E9218093D80210
:1049B00087E00E94A2248823A9F18BE10E94A2240F
:1049C000882351F08091D80281FB222720F991E0C1
:1049D000922790FB81F90EC08EE00E94A2248823CA
:1049E00061F08091D80282FB222720F991E0922782
:1049F00090FB82F98093D80215C080E10E94A22426
:104A00009091D802882341F093FB222720F981E07E
:104A1000822780FB93F904C0892F809580FB90F951
:104A20009093D8028091D8020E94ED210E94FB2130
:104A300090935C0380935B0380EE0E94A224882302
:104A400041F080915B03982F909590FB80F98093C3
:104A50005B0389E30E94A224882359F080915B03C1
:104A600081FB222720F991E0922790FB81F9809326
:104A70005B0382EE0E94A224882359F080915B039D
:104A800082FB222720F991E0922790FB82F9809304
:104A90005B0386EE0E94A224882359F080915B0379
:104AA00083FB222720F991E0922790FB83F98093E2
:104AB0005B0383EE0E94A224882359F080915B035C
:104AC00084FB222720F991E0922790FB84F98093C0
:104AD0005B0385E30E94A224882359F080915B0345
:104AE00085FB222720F991E0922790FB85F980939E
:104AF0005B0381E30E94A224882359F080915B0329
:104B000086FB222720F991E0922790FB86F980937B
:104B10005B0381E10E94A224882359F080915B030A
:104B200087FB222720F991E0922790FB87F9809359
:104B30005B0380915B0390915C030E940C2287E2EF
:104B40000E94A224C82F8EE10E94A2248111C2607B
:104B50008FE10E94A2248111C46080E20E94A224FD
:104B60008111C86081E20E94A2248111C06182E2A9
:104B70000E94A2248111C06283E20E94A2248111BA
:104B8000C06484E20E94A224882311F0C06802C09D
:104B9000CC2329F08C2F0E94F6216C2F03C00E9499
:104BA000F221682F70E080E090E00E94571F8FE0B4
:104BB0000E94A224882319F081E00E94932285E1BB
:104BC0000E94A224882321F080E0CF910C949322AC
:104BD000CF9108958091E30280FF0BC060911D0189
:104BE00085E0689FB0011124759567957595679567
:104BF0002BC081FF09C060911D0185E0689FB00155
:104C000011247595679520C082FF07C060911D0132
:104C100085E0689FB001112417C09091E2029923AA
:104C2000D1F060911C01961788F720911D0185E055
:104C3000289F90011124929FA001939F500D112451
:104C400070E0CA010E94BC2F6038710540F4611504
:104C5000710519F406C065E070E0862F08958FE7AE
:104C6000089581E008958091E30280FF08C060917B
:104C7000190170E0759567957595679521C081FF5D
:104C800006C06091190170E07595679519C082FFA3
:104C900004C06091190170E010C09091E202992364
:104CA00099F0609118019617A0F780911901899FDA
:104CB000C001112470E00E94BC2F6038710540F4DF
:104CC0006115710519F406C061E070E0862F089542
:104CD0008FE7089581E00895803F21F40E94EA253E
:104CE000819504C0813F29F40E94EA258093E70260
:104CF0000895823F21F40E94EA25819504C0833FF4
:104D000029F40E94EA258093E6020895893F19F468
:104D10000E94332605C08A3F31F40E9433268195D4
:104D20008093E80208958B3F21F40E9433268195F9
:104D300004C08C3F29F40E9433268093E902089531
:104D4000843F21F48091E502816017C0853F21F402
:104D50008091E502826011C0863F21F48091E502D6
:104D600084600BC0873F21F48091E502886005C014
:104D7000883F31F48091E50280618093E5020895D7
:104D80008D3F21F48091E30281600BC08E3F21F4BE
:104D90008091E302826005C08F3F29F48091E30295
:104DA00084608093E3020895803F39F48091E702A4
:104DB00087FF6CC01092E70269C0813F29F480919F
:104DC000E7021816BCF362C09091E602823F29F414
:104DD00097FF5CC01092E60259C0833F19F4191680
:104DE000CCF354C0893F41F48091E80218160CF0CE
:104DF0004DC01092E8024AC08A3F29F48091E8022F
:104E000087FF44C0F6CF8B3F39F48091E90287FFDA
:104E10003DC01092E9023AC08C3F29F48091E9022A
:104E20001816BCF333C0843F21F48091E5028E7FD5
:104E300017C0853F21F48091E5028D7F11C0863F28
:104E400021F48091E5028B7F0BC0873F21F4809194
:104E5000E502877F05C0883F31F48091E5028F7EAF
:104E60008093E50213C08D3F21F48091E3028E7F91
:104E70000BC08E3F21F48091E3028D7F05C08F3FF0
:104E800029F48091E3028B7F8093E3028091E60214
:104E900081110EC08091E70281110AC08091E80261
:104EA000811106C08091E902811102C01092E202D4
:104EB000089584EE92E00E9464160E94FF2390936E
:104EC000E1028093E0020895CF93DF9300D000D0F9
:104ED00000D0CDB7DEB786E0E4EEF2E0DE01119659
:104EE00001900D928A95E1F78091E602811105C04B
:104EF0008091E702882309F47AC08091DE029091C4
:104F0000DF020E940B24AC019091E202992339F058
:104F100020911E0130E02417350758F068C0209119
:104F20001F018AE0289F900111242417350718F0EB
:104F30005EC09F3F19F09F5F9093E2021092E802DB
:104F40001092E9028091E602181624F40E94EA25E4
:104F50008093E6028091E60287FF05C00E94EA2561
:104F600081958093E6028091E702181624F40E944E
:104F7000EA258093E7028091E70287FF05C00E943F
:104F8000EA2581958093E7023091E6023323E1F030
:104F90002091E7022223C1F045EB3403C001112424
:104FA000992319F09093E60203C081E08093E60212
:104FB00035EB2303C0011124992319F09093E702E4
:104FC00003C081E08093E7020E9459278091E002AC
:104FD0009091E1029093DF028093DE0286E0FE0171
:104FE0003196A4EEB2E001900D928A95E1F780919E
:104FF000E802811105C08091E902882309F47AC092
:105000008091DC029091DD020E940B24AC01909112
:10501000E202992339F020911A0130E02417350774
:1050200058F068C020911B018AE0289F900111244C
:105030002417350718F05EC09F3F19F09F5F9093CB
:10504000E2021092E6021092E7028091E80218163E
:1050500024F40E9433268093E8028091E80287FFBF
:1050600005C00E94332681958093E8028091E90271
:10507000181624F40E9433268093E9028091E902F5
:1050800087FF05C00E94332681958093E902309105
:10509000E8023323E1F02091E9022223C1F045EB3D
:1050A0003403C0011124992319F09093E80203C03E
:1050B00081E08093E80235EB2303C001112499239A
:1050C00019F09093E90203C081E08093E9020E9405
:1050D00059278091E0029091E1029093DD02809344
:1050E000DC0286E0FE013196A4EEB2E001900D9262
:1050F0008A95E1F726960FB6F894DEBF0FBECDBFB6
:10510000DF91CF910895E4EEF2E086E0DF011D9299
:105110008A95E9F71092E2021092E30208958091D5
:105120000A030895CF93DF9300D01F92CDB7DEB767
:1051300090916103943019F589837B836A8382E0BF
:105140008093E9008FEF9091E800815095FD06C0B3
:1051500095ED9A95F1F700008111F5CF8091E80067
:1051600085FF0DC040E050E063E070E0CE010196A5
:105170000E94EE2A8091E8008E778093E8000F90DD
:105180000F900F90DF91CF910895CF93DF93EC01B3
:105190000E94D12A823011F0843031F4BE0184E0C3
:1051A000DF91CF910C949228DF91CF910895BC01AB
:1051B00083E00C949228CF93DF93EC010E94D12AD4
:1051C000823011F08430F9F482E08093E9008FEFAF
:1051D0009091E800815095FD06C095ED9A95F1F704
:1051E00000008111F5CF8091E80085FF0CC040E000
:1051F00050E066E070E0CE010E94EE2A8091E80067
:105200008E778093E800DF91CF910895CF93DF935D
:10521000EC010E94D12A823011F08430D9F58091BE
:105220002A01882339F080915B0387FF03C060E285
:1052300082E002C068E081E08093E9008FEF909106
:10524000E800815095FD06C095ED9A95F1F70000B4
:105250008111F5CF8091E80085FF1CC080912A0163
:10526000811105C040E050E068E070E003C070E0EC
:1052700040E050E0CE010E94EE2A8091E8008E7757
:105280008093E80080E2FE01AAEEB2E001900D9268
:105290008A95E1F7DF91CF910895809160038111A4
:1052A00009C00E947F2C0E94DC2C8091E200846067
:1052B0008093E20008951092600308950895089580
:1052C0000C94BA2342E061EC81E00E94F82B42E2A8
:1052D00061EC82E00C94F82B80916303833009F435
:1052E00060C030F4813071F0823009F499C00895C3
:1052F0008A3009F485C08B3009F46BC0893009F01D
:10530000A7C020C080916203813A09F0A1C08091BA
:10531000E800877F8093E80080916603909167039F
:10532000892B21F460E28AEE92E003C060E080E025
:1053300090E070E00E94392B8091E8008B77809399
:10534000E800089580916203813209F081C0809164
:10535000660390916703029708F07AC08091E80095
:10536000877F8093E8008091E80082FD05C08091EE
:1053700061038111F8CF6CC02091F3008091F2009D
:1053800090E0922B029729F48091F1008B7F81307D
:1053900021F48091F10080930A038091E8008B77DB
:1053A00053C080916203813A09F052C08091660334
:1053B00090916703892B09F04BC08091E800877FAB
:1053C0008093E8008091E80080FFFCCF80912A0163
:1053D00036C0809162038132D9F580916603909145
:1053E0006703892BA9F58091E800877F8093E80007
:1053F0000E942D2C8091640380932A010C94611BE0
:1054000080916203813221F58091E800877F80934B
:10541000E8000E942D2C8091650380930B03089572
:1054200080916203813AA1F48091E800877F8093A4
:10543000E8008091E80080FFFCCF80910B0380930F
:10544000F1008091E8008E778093E8000C942D2C79
:10545000089584B7877F84BF0FB6F894A89580918C
:105460006000886180936000109260000FBE90E041
:1054700080E80FB6F89480936100909361000FBEAE
:105480000E94AE160E947F2C0E94DC2C8091E200CC
:1054900084608093E20078940E94712F0E94B81675
:1054A00080E291E00E94391680916103853069F4B1
:1054B0000E94742380915F038823B1F30E945B23D1
:1054C000882391F30E94D82AEFCF0E94C416ECCF14
:1054D0000C946A2A292F332723303105C9F060F450
:1054E0002130310581F02230310509F04AC08BE3CB
:1054F00090E026EC3CE049C02132310511F1223226
:10550000310579F13EC082E190E021E03DE03DC00F
:1055100099278130910561F040F08230910559F072
:10552000039779F5EEE9FCE008C0E2ECFCE005C089
:10553000E0EBFCE002C0E4EAFCE0849190E09F0133
:1055400024C06115710541F061307105D1F489E025
:1055500090E021EF3CE019C089E090E028ED3CE0CC
:1055600014C06115710541F06130710551F48CEB87
:1055700090E023E13DE009C080E490E02FEC3DE0C5
:1055800004C080E090E020E030E0FA013183208325
:10559000089580916103843011F081E0089582E0E4
:1055A000089580910C03811102C00C94C92A0895BA
:1055B00080E189BD82E189BD09B400FEFDCF809103
:1055C000D8008F7D8093D8008091E0008260809326
:1055D000E0008091E00081FDFCCF0895CF92DF9242
:1055E000EF92FF920F931F93CF93DF93EC018B0108
:1055F0007A010E944C2C811133C0E114F10439F07E
:10560000F70180819181081B190BC80FD91FC12C8C
:10561000D12C0115110519F18091E80085FD16C006
:105620008091E8008E778093E800E114F10449F05E
:10563000F70180819181C80ED91ED182C08285E098
:105640000FC00E944C2C882321F30AC089918093BB
:10565000F10001501109FFEFCF1ADF0ADACF80E025
:10566000DF91CF911F910F91FF90EF90DF90CF903E
:10567000089520916803309169032617370748F091
:105680006115710539F42091E8002E772093E80028
:1056900001C0B901FC0120E06115710579F180912B
:1056A00061038823F1F18530F1F18091E80083FDF9
:1056B0003CC08091E80082FD2EC08091E80080FF10
:1056C000EBCF2091F3008091F20090E0922B6115D6
:1056D000710551F08830910538F421912093F10043
:1056E000615071090196F3CF21E0089709F020E09D
:1056F0008091E8008E778093E800CECF2111CFCF44
:105700000AC080916103882361F0853061F0809147
:10571000E80083FD0AC08091E80082FFF2CF80E0BC
:10572000089582E0089583E0089581E0089520912E
:105730006803309169032617370748F06115710532
:1057400039F42091E8002E772093E80001C0B901D8
:10575000FC0120E06115710591F1809161038823BE
:1057600009F440C0853009F43FC08091E80083FD12
:105770003DC08091E80082FD2FC08091E80080FF4D
:10578000E9CF2091F3008091F20090E0922B611517
:10579000710559F08830910540F424912093F1006F
:1057A0003196615071090196F2CF21E0089709F016
:1057B00020E08091E8008E778093E800CBCF211124
:1057C000CCCF0AC080916103882361F0853061F0FD
:1057D0008091E80083FD0AC08091E80082FFF2CF4B
:1057E00080E0089582E0089583E0089581E00895BF
:1057F000982F973068F59093E900981739F07091D9
:10580000EC002091ED005091F00003C0242F762F82
:1058100050E021FD02C09F5FECCF3091EB003E7F56
:105820003093EB003091ED003D7F3093ED003091EF
:10583000EB0031603093EB007093EC002093ED00AF
:105840005093F0002091EE0027FDE5CF80E0089511
:105850008F708093E90081E008958091620387FF53
:1058600011C08091E80082FD05C080916103811123
:10587000F8CF11C08091E8008B770BC08091610355
:10588000882349F08091E80080FFF8CF8091E800FC
:105890008E778093E80008952091E4003091E50030
:1058A00095E64091EC00842F817040FF23C08091E9
:1058B000E80080FD1DC080916103882399F0853048
:1058C00099F08091EB0085FD11C04091E40050916A
:1058D000E5002417350729F3915011F09A01E1CF23
:1058E00084E0089582E0089583E0089581E00895BA
:1058F00080E008954091E80042FFDDCF08950E94C6
:10590000ED2C0E94F52CE0EEF0E080818160808338
:10591000E8EDF0E080818F77808319BCA7EDB0E0DF
:105920008C918E7F8C9380818F7E80831092600318
:1059300008950F931F93CF93DF930E94ED2C0E9445
:10594000F52CC8EDD0E088818F77888388818068C6
:10595000888388818F7D888319BC1092610310929F
:105960005D0310925F0310925E0300EE10E0F801F9
:1059700080818B7F808388818160888342E060E0C2
:1059800080E00E94F82BE1EEF0E080818E7F808342
:10599000E2EEF0E080818160808380818860808396
:1059A000F80180818E7F8083888180618883DF9188
:1059B000CF911F910F910895E8EDF0E080818F7EE7
:1059C0008083E7EDF0E080818160808384E082BFA6
:1059D00081E0809360030C94992CE8EDF0E08081E5
:1059E0008E7F80831092E20008951092DA00109268
:1059F000E10008951F920F920FB60F9211242F937A
:105A00003F934F935F936F937F938F939F93AF9346
:105A1000BF93EF93FF938091E10082FF0BC08091D1
:105A2000E20082FF07C08091E1008B7F8093E1005C
:105A30000E94702F8091DA0080FF1FC08091D800F3
:105A400080FF1BC08091DA008E7F8093DA00809106
:105A5000D90080FF0DC080E189BD82E189BD09B414
:105A600000FEFDCF81E0809361030E944D2905C0B7
:105A700019BC109261030E945B298091E10080FFB4
:105A800019C08091E20080FF15C08091E2008E7FF6
:105A90008093E2008091E20080618093E200809137
:105AA000D80080628093D80019BC85E080936103A0
:105AB0000E945F298091E10084FF30C08091E20064
:105AC00084FF2CC080E189BD82E189BD09B400FE5C
:105AD000FDCF8091D8008F7D8093D8008091E10028
